:100000000C9499030C94000F0C942D0F0C945A0F20
:100010000C94870F0C94C1030C94C1030C94B40F7F
:100020000C94C1030C94C1030C9471160C94F81633
:100030000C94C1030C94C1030C94C1030C94C10330
:100040000C94C1030C94C1030C94C1030C94C10320
:100050000C94C1030C94C1030C94C1030C94E10FE4
:100060000C94C1030C94C1030C94C1030C94C10300
:100070000C94C1030C94C1030C94C1030C94C103F0
:100080000C94C1030C94C1030C94C1030C94C103E0
:100090000C94C1030C94C1030C94C1030C94C103D0
:1000A0000C94C1030C94C1030C94C103002C2000D8
:1000B0004164766572746973696E672073746172E6
:1000C000746564004857206572726F723A20002090
:1000D0002050697065204572726F7220436F6465AD
:1000E0003A203078004143492045767420506970A9
:1000F00065204572726F723A205069706520233A0C
:100100000050697065204E756D6265723A2000413D
:1001100064766572746973696E6720737461727452
:1001200065640045767420446973636F6E6E656321
:100130007465642F4164766572746973696E6720B3
:1001400074696D6564206F757400457674206C6900
:100150006E6B20636F6E6E656374696F6E20696E7F
:1001600074657276616C206368616E6765640045D2
:1001700076742050697065205374617475730045FE
:10018000767420436F6E6E656374656400457674A3
:1001900020436D6420726573706F6E653A205374EE
:1001A00061747573200041434920436F6D6D616E2A
:1001B0006420004164766572746973696E672073A8
:1001C0007461727465640045767420446576696371
:1001D0006520537461727465643A205374616E646F
:1001E00062790045767420446576696365205374AE
:1001F00061727465643A2053657475700000070677
:1002000000000302420700000000000000000000A0
:100210000000000000000000000000000000001FBF
:1002200006100000000000000005000501010000AC
:100230000600009000000000000000000000000028
:100240001F06101C0002000000000000000000005B
:10025000000000000000001000000010039001FFEB
:10026000001F061038FFFF025800050000000000C4
:100270000000140000001000000004000000000056
:1002800000000506105400000000000000000000FF
:10029000000000000000000000000000000000005E
:1002A0000000001F062000040402020001280001D3
:1002B00000180404050500022803010E0300002AAB
:1002C00004140A001F06201C0A00032A0001424CE5
:1002D0004520536869656C6404040505000428031F
:1002E00001020500001F062038012A06040302004F
:1002F000052A010100000404050500062803010287
:100300000700042A06001F06205404090800072AD3
:1003100004010600120000000A00040402020008A2
:10032000280001011804001F0620700405050009BB
:10033000280301220A00052A26040504000A2A05CA
:1003400001000000004614001F06208C0302000B71
:10035000290201000004041010000C2800011E9462
:100360008DF1483194BA754C001F0620A83E50000C
:10037000003D7104041313000D280301040E001E38
:10038000948DF1483194BA754C001F0620C43E503C
:1003900003003D7144101400000E00030200000031
:1003A00000000000000000000000001F0620E00028
:1003B00000000000000004041313000F28030110C4
:1003C00010001E948DF1483194BA75001F0620FC70
:1003D0004C3E5002003D7114001400001000020257
:1003E000000000000000000000000000001F0621C7
:1003F000180000000000000000461403020011294C
:1004000002010000040402020012280001001F067D
:1004100021340A18040405050013280301021400FE
:10042000272A0404090100142A27010A0000000AEF
:100430000621500000000000000000000000000045
:1004400000000000000000000000000000000000AC
:100450001F0640002A0001008004000300002A0556
:1004600001000404000A000B000302000804000E4F
:10047000001906401C0000000202000204001000E7
:10048000112A270100800400140000000000000071
:100490000000130650001E948DF1483194BA754C3B
:1004A0003E5000003D710000000000000000000010
:1004B00000000012066000000000000000000000C4
:1004C000000000000000000000000000000000002C
:1004D000000000000606F000033D6C000000000074
:1004E000000000000000000000000000000000000C
:1004F0000000000000000000240027002A002D005A
:10050000300000000000250028002B002E003100E4
:10051000000000002300260029002C002F00040406
:10052000040404030405020202020403020202029C
:100530000606060606060404020202040408020176
:10054000104080401020408040800802040180401C
:10055000201002011080102040400000000200081E
:100560000E0000030401000B00000000000000006A
:100570000000000000000000070605040100080A52
:100580000B0C0D09080B0002020201000904000017
:1005900001020200000524001001052401010104EC
:1005A0002402060524060001070581031000400906
:1005B000040100020A0000000705020240000007D3
:1005C0000583024000000403090422035500530080
:1005D0004200200049004F00200042006F006100EF
:1005E0007200640020002000200020001803550045
:1005F0006E006B006E006F0077006E002000200020
:10060000200020001201000200000040EB0304243F
:100610000001010200011201000202000040EB0390
:10062000042400010102000100C18081C10501090B
:1006300002A1010901A1008501050919012903157C
:10064000002501950375018102950175058103055A
:10065000010930093109381581257F750895038115
:1006600006C0C005010906A1018502050719E02998
:10067000E71500250175019508810295017508812E
:10068000039506750815002565050719002965817C
:1006900000C009040200010300000009210101005B
:1006A00001226500070584034000010000000000EE
:1006B0000000002A2B2800000000000000000000BD
:1006C00000000000000000000000002C9EB4A0A16B
:1006D000A2A434A6A7A5AE362D3738271E1F202189
:1006E0002223242526B333B62EB7B89F8485868768
:1006F00088898A8B8C8D8E8F909192939495969702
:1007000098999A9B9C9D2F3130A3AD35040506071F
:1007100008090A0B0C0D0E0F1011121314151617E1
:1007200018191A1B1C1DAFB1B0B500001E12AB1575
:100730007B1811241FBECFEFDAE0DEBFCDBF12E081
:10074000A0E0B1E0EAE9F3E302C005900D92A23225
:10075000B107D9F714E0A2E2B2E001C01D92A73BB5
:10076000B107E1F717E0C2E3D7E004C02297FE012A
:100770000E94C719CC32D107C9F70E94E9120C9424
:10078000CB190C940000FB01DC0102C005900D9216
:1007900041505040D8F70895FB01DC0102C00190A0
:1007A0000D9241505040D8F708950E94570B88236E
:1007B000B9F00E94330B8F3F910591F487E797E7DB
:1007C000909301088093000828E088E190E00FB63C
:1007D000F894A895809360000FBE20936000FFCF2F
:1007E0000E94500D089584E00E94FF0D0E94120E99
:1007F0000895882319F48CB5806202C08CB58F7D72
:100800008CBD08959CB5937F982B9CBD08952CB505
:10081000382F33702C7F322B3CBD2DB590E0959551
:1008200087959595879581702E7F822B8DBD089534
:1008300081E161E00E94711181E161E00E94E410B8
:100840008CB580618CBD8CB580648CBD8FE061E01F
:100850000E94E41080E161E00E94E4100895FC0130
:1008600081E0808389E081830895FC01DB0185E0DC
:1008700080838FE0818311968C91119783838C9173
:10088000828313968C911397858312968C9184831F
:100890000895FC0181E080838EE081830895FC014E
:1008A00081E0808383E181830895DC014E5F4C9376
:1008B000425085E111968C931197FB01819112961C
:1008C0008C9312971396CD01BF0150E00E94CC0388
:1008D0000895DC014E5F4C9342508DE011968C934D
:1008E0001197FB01819112968C9312971396CD016B
:1008F000BF0150E00E94CC0308951F93CF93DF9374
:10090000EC01CB57DF4F1881C558D04031F480E05F
:1009100091E069EA70E00E94640E30E0812F90E07F
:10092000019683709070CC57DF4F2881281709F407
:1009300031E0832FDF91CF911F910895CF93DF9303
:10094000EC01009731F480E091E060E970E00E94F2
:10095000640EF894789430E0CB57DF4F888190E0B4
:10096000019683709070FE012291281709F431E0FE
:10097000832FDF91CF910895CF93DF93EC01009700
:1009800031F480E091E066E870E00E94640E20E0BF
:10099000FE01EB57FF4FCC57DF4F988180819817AE
:1009A00009F421E0822FDF91CF910895CF93DF9357
:1009B000EC01009731F480E091E067E770E00E947D
:1009C000640EF894789420E0FE01EB57FF4FCC576B
:1009D000DF4F98818081981709F421E0822FDF9101
:1009E000CF910895CF93DF93EC01009731F480E02D
:1009F00091E062E270E00E94640ECC57DF4F1992E2
:100A00001882C558D040FE0180E0118212828F5FAB
:100A1000B1968430D1F7DF91CF9108950F931F9352
:100A2000CF93DF93EC018B01009731F480E091E0EC
:100A300060EB70E00E94640E0115110531F480E056
:100A400091E061EB70E00E94640ECE010E94D6043A
:100A5000882311F080E013C0CC57DF4F8881FE015E
:100A6000E458F04021E2829FC0011124D801E80F30
:100A7000F91F81E201900D928150E1F781E0DF9151
:100A8000CF911F910F910895DF92EF92FF920F93F4
:100A90001F93CF93DF93EC017B01FB01D180009783
:100AA00031F480E091E064E670E00E94640EE114AD
:100AB000F10431F480E091E065E670E00E94640E9C
:100AC000CE010E947D04882311F080E02EC08E01AB
:100AD0000B571F4FF801808190E0FC0125E0EE0FDD
:100AE000FF1F2A95E1F7E80FF91FEC0FFD1F108299
:100AF000F801208181E2289F900111242F5F3F4F50
:100B00002C0F3D1FED2DF0E03196A7014F5F5F4F99
:100B1000C901BA01AF010E94CC03F801808190E0C5
:100B2000019683709070808381E0DF91CF911F9157
:100B30000F91FF90EF90DF900895DF92EF92FF9278
:100B40000F931F93CF93DF93EC017B01FB01D180C7
:100B5000009731F480E091E061E570E00E94640E5E
:100B6000E114F10431F480E091E062E570E00E946C
:100B7000640ECE010E949E04882311F080E02EC0F6
:100B80008E010B571F4FF801808190E0FC0135E08A
:100B9000EE0FFF1F3A95E1F7E80FF91FEC0FFD1F6D
:100BA0001082F801208181E2289F900111242F5F9B
:100BB0003F4F2C0F3D1FED2DF0E03196A7014F5F09
:100BC0005F4FC901BA01AF010E94CC03F8018081D7
:100BD00090E0019683709070808381E0DF91CF91E7
:100BE0001F910F91FF90EF90DF9008950F931F9347
:100BF000CF93DF93EC018B01009731F480E091E01B
:100C00006FE370E00E94640E0115110531F480E07D
:100C100091E060E470E00E94640ECE010E94BC048A
:100C2000882311F080E01AC0CC57DF4F9881C45858
:100C3000D04081E2989FF0011124D801EC0FFD1FF4
:100C400001900D928150E1F7FE01EC57FF4F80813A
:100C500090E0019683709070808381E0DF91CF9166
:100C60001F910F9108950F931F93CF93DF93EC0182
:100C70008B01009731F480E091E06FE270E00E9418
:100C8000640E0115110531F480E091E060E370E03D
:100C90000E94640ECE010E94D604882311F080E0E9
:100CA0001AC0CC57DF4F9881C458D04081E2989F3A
:100CB000F0011124D801EC0FFD1F01900D9281501D
:100CC000E1F7FE01EC57FF4F808190E001968370C1
:100CD0009070808381E0DF91CF911F910F910895F3
:100CE000EF92FF920F931F93CF93DF938C01EB0151
:100CF000FF2481E2E82E20C0D8011F96ED91FC91DF
:100D000050979E9DC0011124E80FF91F3196449120
:100D1000319750E04E5F5F4F81E393E0BF010E9447
:100D2000C30381E393E00E94A307882351F08881E5
:100D30008F5F8883FF24F3949881F8018189981745
:100D4000D8F28F2DDF91CF911F910F91FF90EF90EF
:100D500008959F92AF92BF92CF92DF92EF92FF924F
:100D60000F931F93DF93CF930F92CDB7DEB75C0144
:100D700019820E949609882311F481E049C081E319
:100D800093E00E94E009882311F082E041C0C50190
:100D90008E010F5F1F4FB8010E947006CC24DD2426
:100DA0007601902E012F0BC08FEFC8168FEFD8065B
:100DB0008FE0E80680E0F80610F083E029C0089490
:100DC000C11CD11CE11CF11C81E393E00E94E009ED
:100DD000882351F380913303843811F085E018C0E3
:100DE00010913503113021F0123051F084E010C021
:100DF000C501692D702F0E947006CC24DD24760178
:100E0000C50161E373E00E949909123069F680E040
:100E10000F90CF91DF911F910F91FF90EF90DF9096
:100E2000CF90BF90AF909F90089582E292E00E9491
:100E3000D6040895FF920F931F93CF93DF938C01F5
:100E4000EB01E0912F03F0913003818160E00E947B
:100E50007111F80181818EBD0DB407FEFDCF8EB5F5
:100E60008883F80182818EBD0DB407FEFDCF5EB58B
:100E70005983F8014181442349F0242F30E0852F24
:100E800090E08217930714F4542F5150F52EFFE190
:100E9000F51710F48FE1F82E4C2FD801CE01FC018C
:100EA0000BC013968C9113978EBD0DB407FEFDCF2A
:100EB0008EB58283319611968E2F841B8F1588F301
:100EC000E0912F03F0913003818161E00E94711164
:100ED0008F2DF11081E0DF91CF911F910F91FF9045
:100EE00008950F931F93CF93DF93EC01098183E95A
:100EF00094E0602F4AE050E00E94401483E994E0BF
:100F00006CE371E00E94E21410E0FE01E10FF11DBC
:100F100083E994E0618140E150E00E94401483E95C
:100F200094E06DEA70E00E942C131F5F011768F7D0
:100F300083E994E06CEA70E00E946F13DF91CF9137
:100F40001F910F9108951F93CF93DF93EC01898137
:100F5000803210F010E023C082E292E0BE010E94D5
:100F60009D05182F8823D9F088EA92E00E949E04FC
:100F7000882341F4E0912F03F0913003818160E0F8
:100F80000E94711180912E03882349F083E994E037
:100F90006FE371E00E94E214CE010E947107812F7D
:100FA000DF91CF911F910895E0912F03F0913003CD
:100FB00087818F3F89F161E00E94E410E0912F0367
:100FC000F09130038081813099F4878161E00E9443
:100FD000711164E670E080E090E00E943510E091CD
:100FE0002F03F0913003878160E00E947111089512
:100FF000878161E00E947111E0912F03F09130032D
:10100000878160E00E947111E0912F03F09130031D
:10101000878161E00E9471110895CF93DF93EC0105
:1010200060932E039093300380932F030E94180443
:1010300080E00E94F9038E810E94070480E00E94F4
:10104000020482E292E00E94F20488EA92E00E94A6
:10105000F2048A8162E00E94E410898161E00E94CA
:10106000E41088858F3F19F060E00E94E4100E9430
:10107000D4078C8160E00E9471118B8160E00E9436
:101080007111898161E00E9471118D8160E00E947F
:1010900071116EE170E080E090E00E9435108A8569
:1010A000882339F08B856CE578E040E050E00E94C1
:1010B000890EDF91CF910895DF93CF93CDB7DEB73F
:1010C000C254D0400FB6F894DEBF0FBECDBF109211
:1010D00064001092650082E292E0BE016F5F7F4F74
:1010E0000E94F605882311F419821A82CE01019616
:1010F000BE016E5D7F4F0E941A0788EA92E00E944F
:101100007D04882371F482E292E00E94BC0488236B
:1011100041F4E0912F03F0913003818160E00E945F
:1011200071118BA18823B9F088EA92E0BE016E5D4F
:101130007F4F0E944405882309F4FFCF88EA92E09C
:101140000E947D04882339F0E0912F03F091300351
:1011500083850E94DE0ECE5BDF4F0FB6F894DEBFB4
:101160000FBECDBFCF91DF910895DF93CF93CDB761
:10117000DEB7C254D0400FB6F894DEBF0FBECDBF6D
:1011800088EA92E00E949E04882309F04BC0E09117
:101190002F03F091300382810E94A411019779F40A
:1011A00082E292E00E94D6048823E1F5E0912F03C9
:1011B000F0913003818160E00E94711133C082E2BE
:1011C00092E0BE016F5F7F4F0E943306882311F4C7
:1011D00019821A82CE010196BE016E5D7F4F0E9478
:1011E0001A0788EA92E00E949E04882371F482E242
:1011F00092E00E94D604882341F4E0912F03F091FD
:101200003003818160E00E9471118BA1882351F02D
:1012100088EA92E0BE016E5D7F4F0E949D058823A3
:1012200009F4FFCFCE5BDF4F0FB6F894DEBF0FBEE1
:10123000CDBFCF91DF9108951F93CF93DF93EC0142
:10124000E0912F03F09130038285882341F488EAEE
:1012500092E00E949E04882311F40E94B50888EA57
:1012600092E00E949E04182F88EA92E0BE010E943C
:101270003306882391F180912E03882349F083E976
:1012800094E061E471E00E94E214CE010E947107D3
:10129000112371F0E0912F03F091300382858823B0
:1012A00039F083856CE578E040E050E00E94890EDB
:1012B00088EA92E00E949E04882371F482E292E020
:1012C0000E94D604882341F4E0912F03F09130036B
:1012D000818160E00E94711181E0DF91CF911F91C7
:1012E0000895CF93DF93EC01E0912F03F091300349
:1012F0008285882311F40E94B50888EA92E0BE0135
:101300000E940E05DF91CF910895262F26952695F0
:101310002695FC01E20FF11D848D90E0677002C0FC
:10132000959587956A95E2F7817008950E94150753
:1013300008950F931F93CF93DF938C01EB01CB01A3
:101340000E941C09282F8823A9F18A81883829F056
:10135000893819F1863871F512C0DE01F8017C96E2
:1013600090E013968C91139780831B968C911B971A
:1013700080879F5F11963196983099F71BC0F801CE
:101380007C9680E0108210868F5F31968830D1F78E
:10139000F80114A68389858B0DC08B819C81F8018F
:1013A000978B868B8D819E81918F808F8F81988581
:1013B000938F828F822FDF91CF911F910F9108958C
:1013C0000E94710908950F931F9302E313E0C8016F
:1013D0000E944F04C80101970E94A3071F910F911B
:1013E00008951F93DF93CF93CDB7DEB765970FB600
:1013F000F894DEBF0FBECDBF582F142F282F30E03A
:10140000C901880F991F820F931FE0915A03F09131
:101410005B03E80FF91F3397818192818230910538
:1014200011F00497C1F41531B0F459839E012E5F79
:101430003F4FC901412F50E00E94CC0382E393E06B
:10144000BE016F5F7F4F412F0E94550481E393E0FF
:101450000E94A30701C080E065960FB6F894DEBF36
:101460000FBECDBFCF91DF911F9108950F931F93B2
:10147000DF93CF9300D000D0CDB7DEB79A838983B6
:101480007C836B8302E313E0C801BE016F5F7F4F73
:101490000E943504C80101970E94A3070F900F9086
:1014A0000F900F90CF91DF911F910F9108951F938F
:1014B000DF93CF93CDB7DEB765970FB6F894DEBF55
:1014C0000FBECDBF122F262F30E0C901880F991F04
:1014D000820F931FE0915A03F0915B03E80FF91F0D
:1014E000339780818130C9F41531B8F469839E0146
:1014F0002E5F3F4FC901BA01412F50E00E94CC033B
:1015000082E393E0BE016F5F7F4F412F0E94690429
:1015100081E393E00E94A30701C080E065960FB6C7
:10152000F894DEBF0FBECDBFCF91DF911F9108951C
:101530000F931F9302E313E0C8010E942F04C80118
:1015400001970E94A3071F910F9108950F931F9376
:1015500002E313E0C8010E944904C80101970E94F8
:10156000A3071F910F910895CF93DF93EC0164E6D9
:1015700070E080E090E00E9435100E94A60ACE0143
:1015800061E373E00E9499098823C9F380913303D2
:101590008438A9F780913503833861F484E080931F
:1015A000320381E88093330382E080933403109206
:1015B00035030EC0882379F484E08093320381E8F8
:1015C0008093330383E0809334031092350382E0E9
:1015D000809336030FC0823899F484E080933203FD
:1015E00081E88093330381E08093340310923503C4
:1015F0001092360388EA92E061E373E00E949D0551
:10160000DF91CF910895CF93DF93EC01FC017C969D
:10161000A2E5B3E0108210861D92319683E0AA35D0
:10162000B807C1F710925C031092600310925F0339
:1016300010925D0310925E03109261038C859D856C
:1016400090935B0380935A038F85988990936303EB
:1016500080936203CE010E940D08CE010E94B40A5D
:10166000DF91CF9108954091F803442319F42FEFAF
:101670003FEF1BC08091E6019091E70189539440B0
:1016800031F489EF93E09093E7018093E601E091D4
:10169000E601F091E7018191282F30E0F093E70116
:1016A000E093E60141504093F803C9010895809109
:1016B000F80308951F9385E693E064ED73E00E94BC
:1016C0009909882309F49DC18091D603863809F4CD
:1016D000C7C0873880F4833809F45FC1843820F4A8
:1016E000813809F0CFC11AC0843809F459C085384F
:1016F00009F0C8C185C08A3809F4FCC08B3838F4B9
:10170000883809F48FC0893809F0BCC1A4C08C386E
:1017100009F4BCC08D3809F0B5C10BC18091D90363
:10172000809378038091D703823021F0833009F0D1
:10173000A9C10AC083E994E063EE71E00E946F13CF
:1017400081E080933B049EC183E994E067EC71E003
:101750000E946F138091D803882339F064E170E010
:1017600080E090E00E9435108DC1A9EDB1E0FD014F
:1017700001900020E9F73197EA1BFB0B85E693E027
:1017800061E0AD012E2F0E94570A80E090E060E5F5
:1017900070E00E94360A83E994E063EB71E02EC1A9
:1017A0008091D8038823F1F083E994E066EA71E040
:1017B0000E942C136091D70383E994E070E040E12C
:1017C00050E00E94C31483E994E06DE871E00E9448
:1017D0002C136091D80383E994E070E040E150E07D
:1017E0000E94C3148091D703893009F04BC185E66C
:1017F00093E065E049ED53E029E00E94570A42C1B9
:1018000081E08093F60383E994E06FE771E00E9442
:101810006F131092F7038091780380937A030E94EC
:10182000980A30C183E994E06FE671E00E946F137B
:1018300085E693E064E00E948509882309F422C1CB
:101840008091F703882309F01DC10E94E30981E01C
:101850008093F70317C183E994E06AE471E0CEC096
:101860001092F60381E08093D30383E994E063E26E
:1018700071E00E946F1380E090E060E570E00E94EC
:10188000360A83E994E06FE071E0B8C083E994E040
:1018900061E071E00E942C1383E994E06091D7032A
:1018A0004AE050E00E9452144091F803E091E401B4
:1018B000F091E501A8EDB3E020E030E00DC0403448
:1018C00091F084E0E933F80711F4E9EFF3E08D914A
:1018D00081932F5F3F4F4F5F8091D50390E0029738
:1018E0002817390764F34093F803F093E501E09378
:1018F000E401C8C08091D70390917A03890F809347
:101900007A0383E994E064E471E00E94E21483E9DD
:1019100094E06DE571E00E94E21483E994E0609147
:101920007A034AE050E00E94521481E08093D3038E
:10193000A9C083E994E065EE70E00E942C1383E96E
:1019400094E06091D7034AE050E00E94401483E99C
:1019500094E06FEC70E00E942C1383E994E06091B6
:10196000D80340E150E00E9452148091D80382399C
:1019700029F080917A038F5F80937A0383E994E062
:101980006DE571E00E94E21483E994E060917A03CE
:101990004AE050E00E94521475C083E994E064EC80
:1019A00070E00E942C136091D7037091D80383E9F3
:1019B00094E04AE050E00E94231410E008C0EC528A
:1019C000FC4F83E994E065810E9435121F5FE12F8F
:1019D000F0E08091D50390E00297E817F9077CF3D7
:1019E00083E994E00E944F1380E090E060E570E0AE
:1019F0000E94360A83E994E060EB70E00E946F1366
:101A000041C080913A04882309F43CC080917A0057
:101A10008F7780937A0080917B008F7B80937B000F
:101A20001FBEA89584B7877F84BF809160008861BE
:101A300080936000109260008FB780688FBF85B779
:101A4000806885BF8FEF80937E008DB3887F8DBBCC
:101A5000809168008E7F8093680010926B008DEA01
:101A60008093640089E98093650083B7817F8460F7
:101A700083BF83B7816083BF7894889583B78E7F57
:101A800083BF789480913B04882341F085E693E0FE
:101A90000E94A906882311F410923B041F91089517
:101AA0001F938CB58093640380E00E94F90385E066
:101AB0000E94070480E00E94020485E693E064E04F
:101AC0000E948509882309F493C08091920388239A
:101AD00009F48EC010E045C06D567C4F84E044E1AF
:101AE0000E94F1098823A9F083E994E065E771E099
:101AF0000E94E21483E994E064E170E04AE050E07F
:101B00000E94B01483E994E067E971E00E94E21456
:101B100006C083E994E06CE971E00E94E5148091CD
:101B2000920384518093920380917A038150809331
:101B30007A0383E994E06DE571E00E94E21483E9A1
:101B400094E060917A034AE050E00E9452141092AF
:101B5000D30302C00E945A0B8091D3038823D1F390
:101B60001C5E40919203612F70E0453108F0B4CFC4
:101B70006D567C4F84E00E94F1098823A9F083E927
:101B800094E065E771E00E94E21483E994E06091DB
:101B900092034AE050E00E94401483E994E067E930
:101BA00071E00E94E21406C083E994E06CE971E000
:101BB0000E94E5141092920380917A0381508093E1
:101BC0007A0383E994E06DE571E00E94E21483E911
:101BD00094E060917A034AE050E00E94521410921F
:101BE000D30302C00E945A0B8091D3038823D1F300
:101BF0000E945A0B809164038CBD1F9108951F931E
:101C0000182F61E00E94E410812F61E00E947111A1
:101C1000812F60E00E947111812F61E00E9471119B
:101C20001F9108958CB58093640380E00E94F903AE
:101C300085E00E94070480E00E94020488EE91E0A3
:101C4000909372038093710325E0209373038DEFCB
:101C500091E0909375038093740387E180937603FA
:101C6000109265038091D701809366038091D8011B
:101C70008093670380E1809368038EE0809369031B
:101C80008FE080936A0320936B038FEF80936C0344
:101C900080936D0380936E0380913A04882321F032
:101CA00081E080936F0302C010926F0384E0809301
:101CB000700385E693E060E00E94030B809164036B
:101CC0008CBD0E9418040895EF92FF920F931F930A
:101CD0008C017B0183E994E06BEC71E00E94E214DB
:101CE00083E994E0B8010E94E21483E994E062ED94
:101CF00071E00E94E21483E994E0B7014AE050E009
:101D00000E94121483E994E065ED71E00E94E214F0
:101D1000FFCF853008F051C0E82FF0E0EE0FFF1F35
:101D2000E45CFB4F71836083823009F1833030F4CF
:101D3000882349F0813009F040C00DC0833021F183
:101D40008430D9F52EC0809169008C7F842B8093DC
:101D50006900E89A089580916900440F551F440F67
:101D6000551F837F842B80936900E99A08958091A1
:101D7000690034E0440F551F3A95E1F78F7C842BBE
:101D800080936900EA9A08958091690026E0440FE3
:101D9000551F2A95E1F78F73842B80936900EB9A86
:101DA000089580916A0094E0440F551F9A95E1F7D9
:101DB0008F7C842B80936A00EE9A08958530F8F426
:101DC000823081F0833028F4882341F0813079F427
:101DD00007C0833049F0843051F408C0E89807C048
:101DE000E99805C0EA9803C0EB9801C0EE98E82F87
:101DF000F0E0EE0FFF1FE45CFB4F118210820895AC
:101E00001F920F920FB60F9211242F933F934F936F
:101E10005F936F937F938F939F93AF93BF93EF9352
:101E2000FF9380913C0490913D04892B29F0E0912F
:101E30003C04F0913D040995FF91EF91BF91AF9162
:101E40009F918F917F916F915F914F913F912F91D2
:101E50000F900FBE0F901F9018951F920F920FB604
:101E60000F9211242F933F934F935F936F937F9320
:101E70008F939F93AF93BF93EF93FF9380913E0413
:101E800090913F04892B29F0E0913E04F0913F04AA
:101E90000995FF91EF91BF91AF919F918F917F91A4
:101EA0006F915F914F913F912F910F900FBE0F90C7
:101EB0001F9018951F920F920FB60F9211242F9317
:101EC0003F934F935F936F937F938F939F93AF93C2
:101ED000BF93EF93FF938091400490914104892B2D
:101EE00029F0E0914004F09141040995FF91EF91B0
:101EF000BF91AF919F918F917F916F915F914F9122
:101F00003F912F910F900FBE0F901F9018951F9229
:101F10000F920FB60F9211242F933F934F935F931D
:101F20006F937F938F939F93AF93BF93EF93FF93A1
:101F30008091420490914304892B29F0E09142045E
:101F4000F09143040995FF91EF91BF91AF919F915B
:101F50008F917F916F915F914F913F912F910F9052
:101F60000FBE0F901F9018951F920F920FB60F92F1
:101F700011242F933F934F935F936F937F938F938E
:101F80009F93AF93BF93EF93FF93809144049091FD
:101F90004504892B29F0E0914404F091450409950A
:101FA000FF91EF91BF91AF919F918F917F916F9131
:101FB0005F914F913F912F910F900FBE0F901F9007
:101FC00018951F920F920FB60F9211242F933F93E3
:101FD0004F935F936F937F938F939F93AF93BF9331
:101FE00020914A0430914B0440914C0450914D048F
:101FF00070914E04DA01C9010296A11DB11D672F2F
:102000006A5F6D3730F06D57DA01C9010396A11D83
:10201000B11D60934E0480934A0490934B04A093A7
:102020004C04B0934D048091460490914704A091D4
:102030004804B09149040196A11DB11D8093460446
:1020400090934704A0934804B0934904BF91AF9183
:102050009F918F917F916F915F914F913F912F91C0
:102060000F900FBE0F901F9018959B01AC017FB78A
:10207000F8948091460490914704A0914804B0914F
:10208000490466B5A89B05C06F3F19F00196A11DD4
:10209000B11D7FBFBA2FA92F982F8827860F911DBA
:1020A000A11DB11D63E0880F991FAA1FBB1F6A9570
:1020B000D1F7BC012DC0FFB7F894809146049091F0
:1020C0004704A0914804B0914904E6B5A89B05C017
:1020D000EF3F19F00196A11DB11DFFBFBA2FA92F27
:1020E000982F88278E0F911DA11DB11DE3E0880F49
:1020F000991FAA1FBB1FEA95D1F7861B970B885E15
:102100009340C8F2215030404040504068517C4FCD
:10211000211531054105510571F60895789484B56E
:10212000826084BD84B5816084BD85B5826085BDD3
:1021300085B5816085BDEEE6F0E0808181608083B9
:10214000E1E8F0E01082808182608083808181609C
:102150008083E0E8F0E0808181608083E1E9F0E065
:10216000808182608083808181608083E0E9F0E00B
:10217000808181608083E1ECF0E0808184608083F5
:10218000808182608083808181608083E3ECF0E0E5
:10219000808181608083E0ECF0E0808182608083D8
:1021A000E2ECF0E0808181608083EAE7F0E080810A
:1021B000846080838081826080838081816080836D
:1021C0008081806880830895CF93DF93482F50E00B
:1021D000CA01845C9A4FFC013491425E5A4FFA0165
:1021E0008491882369F190E0880F991FFC01EC50DD
:1021F000FB4FA591B491FC01EE5FFA4FC591D491CC
:10220000662351F42FB7F8948C91932F90958923DE
:102210008C93888189230BC0623061F42FB7F894C6
:102220008C91932F909589238C938881832B88831D
:102230002FBF06C09FB7F8948C91832B8C939FBFC0
:10224000DF91CF910895883071F1893068F4823040
:1022500031F1833020F4813009F042C01DC0833059
:1022600089F08430E9F512C08B3059F18C3028F4B4
:102270008930E9F08A30A1F51EC08C3031F18E3002
:1022800079F529C0809180008F7703C0809180000C
:102290008F7D80938000089584B58F7702C084B5C8
:1022A0008F7D84BD0895809190008F7707C08091C5
:1022B00090008F7D03C080919000877F8093900075
:1022C00008958091C0008F7703C08091C0008F7DFA
:1022D0008093C00008958091C200877F8093C200E0
:1022E0000895FF920F931F93F62E482F50E0CA01D6
:1022F000865A9A4FFC012491CA01845C9A4FFC01D2
:102300001491425E5A4FFA0104910023C9F022232E
:1023100019F0822F0E942311E02FF0E0EE0FFF1F33
:10232000EE5FFA4FA591B4919FB7F894FF2021F486
:102330008C911095812302C08C91812B8C939FBF2F
:102340001F910F91FF9008950F931F93482F50E016
:10235000CA01865A9A4FFC012491CA01845C9A4FA3
:10236000FC010491425E5A4FFA011491112319F4B1
:1023700020E030E015C0222319F0822F0E942311A3
:10238000812F90E0880F991F805F9A4FFC01A591E3
:10239000B4918C9120E030E0802311F021E030E016
:1023A000C9011F910F91089520918F0430919004DD
:1023B0008091910490919204281B390B2F733070F7
:1023C000C901089520918F04309190048091910467
:1023D000909192042817390719F42FEF3FEF09C0A5
:1023E000E0919104F0919204E15BFB4F8081282FF2
:1023F00030E0C901089520918F04309190048091BC
:102400009104909192042817390719F42FEF3FEFA8
:1024100013C0E0919104F0919204E15BFB4F2081A5
:10242000809191049091920401968F739070909393
:1024300092048093910430E0C901089510929604AB
:102440001092950488EE93E0A0E0B0E080939704AA
:1024500090939804A0939904B0939A0485E092E035
:10246000909394048093930408950F931F93DF93A4
:10247000CF930F92CDB7DEB78C0169838091FE01B7
:10248000882369F083E0BE016F5F7F4F41E050E039
:102490000E94CC151816190614F49C0107C081E09F
:1024A00090E0F8019383828320E030E0C9010F902F
:1024B000CF91DF911F910F91089583E00E94A115A4
:1024C0000895CF93DF9312C082E00E942C152FEF66
:1024D0008F3F9207C9F0E0918F04F0919004E15B87
:1024E000FB4F8083D0939004C0938F04C0918F04DE
:1024F000D09190042196CF73D070809191049091E7
:102500009204C817D90701F7DF91CF910895FC0114
:1025100080818E5F808380E864E875E042E450E06B
:102520000E9445150895FC0181819081913A59F4EA
:10253000813209F04CC080E067EF71E047E050E085
:102540000E94451542C0913209F041C0803239F4F1
:1025500087EF91E067E070E00E94891536C0823213
:1025600009F035C082818093FE018091F70190913E
:10257000F801A091F901B091FA01805B9440A0406C
:10258000B04019F58091FE0180FD12C087E797E702
:1025900090930108809300082BE088E190E00FB64B
:1025A000F894A895809360000FBE209360000DC042
:1025B00088E10FB6F89480936000109260000FBE1F
:1025C000A895109201081092000881E0089580E01B
:1025D0000895CF93DF930E948E1089EA94E00E94C1
:1025E000AC1589B5806189BD09B400FEFDCF0E949C
:1025F000F303C0E0D0E00E94D5032097E1F30E94EE
:102600000000F9CFCF92DF92EF92FF920F931F93CA
:10261000CF93DF937C016B018A01C0E0D0E00FC053
:10262000D6016D916D01D701ED91FC910190F08182
:10263000E02DC7010995C80FD91F015010400115A1
:10264000110571F7CE01DF91CF911F910F91FF908E
:10265000EF90DF90CF900895EF92FF920F931F932A
:10266000CF93DF937C018B01C0E0D0E0F8010F5FD6
:102670001F4F6491662359F0D701ED91FC910190B1
:10268000F081E02DC7010995C80FD91FEFCFCE010A
:10269000DF91CF911F910F91FF90EF900895EF92EE
:1026A000FF920F931F938C01DC01ED91FC9101903F
:1026B000F081E02D6DE009957C01D801ED91FC9150
:1026C0000190F081E02DC8016AE009959C012E0D72
:1026D0003F1DC9011F910F91FF90EF900895EF9258
:1026E000FF920F931F937C010E942C138C01C70152
:1026F0000E944F139C01200F311FC9011F910F91A0
:10270000FF90EF900895CF93DF93EC016115710571
:1027100019F420E030E00FC0DB010D900020E9F754
:102720001197A61BB70BE881F9810280F381E02D98
:10273000AD0109959C01C901DF91CF9108954F9298
:102740005F927F928F929F92AF92BF92CF92DF92D1
:10275000EF92FF920F931F93DF93CF93CDB7DEB726
:10276000A1970FB6F894DEBF0FBECDBF2C01742E1B
:10277000CB01223008F42AE019A231E2C32ED12C79
:10278000CC0EDD1E822E9924AA24BB24672D752F22
:10279000A50194010E94A31979018A01C801B7011A
:1027A000A50194010E948419472D461B0894C10875
:1027B000D1084A3014F4405D01C0495CF601408301
:1027C000E114F1040105110521F07E2C5F2DC801F3
:1027D000DDCFC201B6010E948313A1960FB6F89413
:1027E000DEBF0FBECDBFCF91DF911F910F91FF9044
:1027F000EF90DF90CF90BF90AF909F908F907F90A1
:102800005F904F900895DC012115310541F4ED9161
:10281000FC910190F081E02D642F099508950E94AC
:102820009F130895EF92FF920F931F939A017B01DC
:1028300000E010E0B801A7010E9403141F910F915E
:10284000FF90EF900895CF92DF92EF92FF920F9357
:102850001F936C017B019A0100E010E0B801A70111
:102860000E9403148C01C6010E944F13080F191F08
:10287000C8011F910F91FF90EF90DF90CF900895C6
:10288000EF92FF920F931F939A01E62EFF2400E030
:1028900010E0B801A7010E9403141F910F91FF904F
:1028A000EF900895CF92DF92EF92FF920F931F93D4
:1028B0006C01E62E9A01FF2400E010E0B801A701A8
:1028C0000E9403148C01C6010E944F13080F191FA8
:1028D000C8011F910F91FF90EF90DF90CF90089566
:1028E000CF92DF92EF92FF920F931F93CF93DF93DC
:1028F000EC016A017B012115310541F4E881F98180
:102900000190F081E02D642F09951FC02A30310518
:10291000D1F477FF17C0E881F9810190F081E02DB3
:102920006DE209958C0144275527BA014C195D09C0
:102930006E097F09CE012AE00E949F139801280F9B
:10294000391F04C02AE00E949F139C01C901DF9136
:10295000CF911F910F91FF90EF90DF90CF9008954E
:10296000EF92FF920F931F937B019A010027F7FCD0
:102970000095102FB801A7010E9470141F910F91AC
:10298000FF90EF900895CF92DF92EF92FF920F9316
:102990001F936C017B019A010027F7FC0095102F13
:1029A000B801A7010E9470148C01C6010E944F1348
:1029B000080F191FC8011F910F91FF90EF90DF9032
:1029C000CF9008950E9483130895EF92FF920F9382
:1029D0001F937C010E9483138C01C7010E944F1337
:1029E000080F191FC8011F910F91FF90EF900895D4
:1029F000282F8091A3048823C1F057FF1AC015C067
:102A0000289A9093A2048091F1008193E217F30732
:102A1000B9F74115510539F08091F200882319F476
:102A20008BE68093E800AFBF02C04FEF5FEFCA01B3
:102A30000895AFB7F89427702093E9008091F200D1
:102A4000282F30E0241735070CF4A901FB019B0166
:102A5000240F311D94E6DACFDF93CF930F92CDB7D9
:102A6000DEB7BE016F5F7F4F41E050E00E94F81477
:102A7000019719F02FEF3FEF03C08981282F30E035
:102A8000C9010F90CF91DF910895FF920F931F938B
:102A9000F82E142F052F4091A6045091A704212F42
:102AA000302FC901DC01FB016EEF29C0F7FE02C027
:102AB000949101C090812091A4043091A504241721
:102AC0003507ACF48091E8008570E1F38091E8006F
:102AD00082FF03C02FEF3FEF17C09093F100C901B1
:102AE00001968F739070892B11F46093E8002F5F2B
:102AF0003F4F3093A5042093A4041197319610976B
:102B0000A9F6812F902F9C01C9011F910F91FF9071
:102B100008959C018091E80082FFFCCFF901260F07
:102B2000311D03C08091F1008193E217F307D1F7C3
:102B3000289A84E68093A2048BEF8093E800CB016F
:102B400008958093E9008091F200882319F08AE3C8
:102B50008093E800089508951092A30481E0809383
:102B6000D70080EA8093D80082E089BD09B400FED6
:102B7000FDCF61E070E080E090E00E94351080E9D8
:102B80008093D8008CE08093E2001092E000559A88
:102B9000209A5D98289808955F926F927F928F9205
:102BA0009F92AF92BF92CF92DF92EF92FF920F93DC
:102BB0001F93CF93DF93E82E842E752E8091A3046C
:102BC000882371F18B01242F352FC901EC017AEF95
:102BD000F72E67E0962E9E2050E4552E8E2D90E025
:102BE00040E2A42EB12CA822B9223AE3632E20E4BD
:102BF000C22ED12CC822D92258C09FB7F8949092E7
:102C0000E9008091E80085FD02C020E004C08091C9
:102C1000F200252D281B9FBF222361F4FA9419F49A
:102C20002FEF3FEF4DC061E070E080E090E00E9448
:102C300035103BC0822F90E0C817D9070CF42C2F19
:102C4000C21BD1094FB7F8949092E900A114B104C6
:102C500021F406C01092F10021502223D9F719C0A7
:102C6000E7FC03C0F801922F10C0C801322F06C044
:102C7000FC010196E491E093F10031503323C1F758
:102C800006C081918093F10091509923D1F7020FF2
:102C9000111D8091E80085FF05C0209729F4C1141B
:102CA000D10411F06092E8004FBF209709F0A5CF42
:102CB0005D9A84E68093A104282D372DC9019C01DB
:102CC000C901DF91CF911F910F91FF90EF90DF909D
:102CD000CF90BF90AF909F908F907F906F905F90BC
:102CE00008951F920F920FB60F9211242F933F93C6
:102CF0004F935F936F937F938F939F93AF93BF9304
:102D0000EF93FF938091E1001092E100982F83FFF1
:102D10000FC01092E90081E08093EB001092EC006C
:102D200082E38093ED001092A30488E08093F0008A
:102D300092FF34C083E08093E9008091F200882301
:102D400019F08AE38093E8008FB7F89492E09093AB
:102D5000E9009091F2008FBF992321F083E994E07C
:102D60000E9461128091A104882351F08091A104F6
:102D700081508093A1048091A104882309F45D9877
:102D80008091A204882351F08091A2048150809305
:102D9000A2048091A204882309F42898FF91EF915E
:102DA000BF91AF919F918F917F916F915F914F9163
:102DB0003F912F910F900FBE0F901F9018950F937A
:102DC0001F93DF93CF930F92CDB7DEB719828E0199
:102DD0000F5F1F4FC8010E948712C8010E94781917
:102DE000898190E00F90CF91DF911F910F9108950D
:102DF0001F920F920FB60F921124EF92FF921F9322
:102E00002F933F934F935F936F937F938F939F93F2
:102E1000AF93BF93EF93FF93DF93CF93CDB7DEB71D
:102E20006197DEBFCDBF1092E9008091E80083FF7B
:102E30000FC1FE0131969E01275F3F4F03C0809175
:102E4000F1008193E217F307D1F7289A84E6809383
:102E5000A20482EF8093E800998197FF05C08091DA
:102E6000E80080FFFCCF03C08EEF8093E800292F9D
:102E700030E0C90180769070892B09F0C2C08A8148
:102E8000882329F41092F1001092F100D6C081300D
:102E900009F4D3C0833009F4D0C0853049F480915F
:102EA000E80080FFFCCF8B8180688093E300C5C081
:102EB000863009F07CC01C81EF80F8841230C1F5A7
:102EC0001092E9001092A5041092A4041092A70495
:102ED0001092A6040E94DF1699E0FE013996DF01E8
:102EE000292F1D922A95E9F799871A8791E09E87E5
:102EF00090E8988B9AEF998B2091A4043091A504C7
:102F0000275F3F4F3C872B878D871092E9001092F7
:102F1000A5041092A404F092A704E092A60480E015
:102F2000BF0149E050E00E9445150E94DF1685C0B0
:102F30001092E9001092A5041092A404F092A70444
:102F4000E092A604123241F482E290E00E947019ED
:102F5000892B09F476C071C0113079F488E0E81645
:102F6000F10419F481E08093A8048091A8048823D7
:102F700009F06BC0E4E0F6E013C0133009F061C063
:102F80008B81882319F4E6ECF5E00AC0823019F44D
:102F9000EAECF5E005C0813009F053C0ECEEF5E055
:102FA000449180E8BF0150E00E94451546C087303B
:102FB00009F447C0883021F481E08093F1003DC0DE
:102FC0008930D9F523703070232BD9F5E9E2F6E08A
:102FD00091E031E026E39093E9003093EB00849197
:102FE0008093EC002093ED009F5F3196953099F728
:102FF0008EE78093EA001092EA008B818093A3040D
:103000001CC08F8198851092E9001092A50410923F
:10301000A4049093A7048093A6048D81882329F4A7
:10302000CE0101960E94931206C0823051F4CE0167
:1030300001960E944118882321F08EEF8093E800CA
:1030400007C081E28093EB0003C0E6E1F6E0A8CF81
:103050006196DEBFCDBFCF91DF91FF91EF91BF9120
:10306000AF919F918F917F916F915F914F913F9120
:103070002F911F91FF90EF900F900FBE0F901F9018
:103080001895FC0191818081813A31F4913089F069
:1030900080E0933089F40DC0813269F49B3021F4D3
:1030A00082818093FF0105C09A3029F48281809348
:1030B000000281E0089580E00895EF92FF920F935F
:1030C0001F938C01E62EDC01ED91FC910480F581CB
:1030D000E02D0995F82ED801ED91FC910680F7813D
:1030E000E02DC8016E2D09958F2D90E01F910F9155
:1030F000FF90EF9008951092AA041092AE041092DF
:10310000AD0487E192E09093AC048093AB04089502
:10311000EF92FF920F931F93DF93CF930F92CDB750
:10312000DEB789838B017A0184E0BE016F5F7F4F38
:1031300041E050E00E94CC1584E4B801A7010E9450
:10314000CC150F90CF91DF911F910F91FF90EF90D1
:10315000089582E048E050E00E9488180895FC013C
:103160001682178210861186128613861482349670
:10317000BF010E94A9180895DC01683810F0685852
:1031800029C0E62FF0E067FF13C0E058F04081E06F
:1031900090E002C0880F991FEA95E2F78095149697
:1031A0002C911497282314962C93149760E012C046
:1031B000E555F94F6491662319F420E030E01DC015
:1031C00067FF08C014968C9114978D7F14968C938A
:1031D00014976F77FD0190E0662321F086818617B2
:1031E00009F416829F5F31969630B1F7CD0114969F
:1031F000BD010E94A91821E030E0C9010895CF93D4
:10320000DF93DC01683810F0685825C0E62FF0E045
:1032100067FF12C0E058F04081E090E002C0880FE4
:10322000991FEA95E2F714962C911497282B14967F
:103230002C93149760E00FC0E555F94F6491662315
:10324000D9F167FF08C014968C9114978260149688
:103250008C9314976F7716968C9116978617A9F111
:1032600017968C911797861781F118968C9118975D
:10327000861759F119968C911997861731F11A967C
:103280008C911A97861709F11B968C911B978617BC
:10329000E1F0ED01E0E0F0E09E2F8E81882321F443
:1032A000EA0FFB1F668306C09F5F31962196E630CA
:1032B000F10591F7963049F481E090E013969C93E4
:1032C0008E93129720E030E007C0CD011496BD0127
:1032D0000E94A91821E030E0C901DF91CF91089543
:1032E00080E86DE276E045E650E00E9445150895DD
:1032F000FC0180818F5F808380E862E976E049E1AC
:1033000050E00E9445150895629FD001739FF0011F
:10331000829FE00DF11D649FE00DF11D929FF00D65
:10332000839FF00D749FF00D659FF00D9927729F9C
:10333000B00DE11DF91F639FB00DE11DF91FBD0127
:10334000CF0111240895A1E21A2EAA1BBB1BFD0177
:103350000DC0AA1FBB1FEE1FFF1FA217B307E40774
:10336000F50720F0A21BB30BE40BF50B661F771FCC
:10337000881F991F1A9469F76095709580959095AC
:103380009B01AC01BD01CF010895EE0FFF1F059019
:0A339000F491E02D0994F894FFCFAA
:10339A00433A5C55736572735C64656C6C5C446F2C
:1033AA0063756D656E74735C41726475696E6F5C8A
:1033BA006C69627261726965735C424C455C6163F7
:1033CA00695F71756575652E63707000203A0043F8
:1033DA00002045004143495F4556545F44415441EA
:1033EA005F43524544495420202020200044617400
:1033FA00612043726564697420617661696C6162F7
:10340A006C653A200064617461207472616E736D38
:10341A006D697420737563636573732120204C652D
:10342A006E6774683A20002020202000646174616D
:10343A00207472616E736D6D6974206661696C20A7
:10344A002100746865206E6577206E616D6520695C
:10345A007320746F6F206C6F6E67004552524F5223
:10346A0020003A20000A000607426C656E644D6926
:10347A0063726F00F903F903018000010400010877
:10348A000001020001800000E100000000000001CC
:10349A00010000000035120213D411FB11E2115D84
:1034AA00126112000000005D180213FF18BC18AF69
:0234BA001800F8
:00000001FF
