:100000000C9499030C944B0F0C94780F0C94A50F3F
:100010000C94D20F0C94C1030C94C1030C94FF0FE9
:100020000C94C1030C94C1030C94BC160C9443179C
:100030000C94C1030C94C1030C94C1030C94C10330
:100040000C94C1030C94C1030C94C1030C94C10320
:100050000C94C1030C94C1030C94C1030C942C1098
:100060000C94C1030C94C1030C94C1030C94C10300
:100070000C94C1030C94C1030C94C1030C94C103F0
:100080000C94C1030C94C1030C94C1030C94C103E0
:100090000C94C1030C94C1030C94C1030C94C103D0
:1000A0000C94C1030C94C1030C94C103002C2000D8
:1000B0004164766572746973696E672073746172E6
:1000C000746564004857206572726F723A20002090
:1000D0002050697065204572726F7220436F6465AD
:1000E0003A203078004143492045767420506970A9
:1000F00065204572726F723A205069706520233A0C
:100100000050697065204E756D6265723A2000413D
:1001100064766572746973696E6720737461727452
:1001200065640045767420446973636F6E6E656321
:100130007465642F4164766572746973696E6720B3
:1001400074696D6564206F757400457674206C6900
:100150006E6B20636F6E6E656374696F6E20696E7F
:1001600074657276616C206368616E6765640045D2
:1001700076742050697065205374617475730045FE
:10018000767420436F6E6E656374656400457674A3
:1001900020436D6420726573706F6E653A205374EE
:1001A00061747573200041434920436F6D6D616E2A
:1001B0006420004164766572746973696E672073A8
:1001C0007461727465640045767420446576696371
:1001D0006520537461727465643A205374616E646F
:1001E00062790045767420446576696365205374AE
:1001F00061727465643A2053657475700000070677
:1002000000000302420700000000000000000000A0
:100210000000000000000000000000000000001FBF
:1002200006100000000000000005000501010000AC
:100230000600009000000000000000000000000028
:100240001F06101C0002000000000000000000005B
:10025000000000000000001000000010039001FFEB
:10026000001F061038FFFF025800050000000000C4
:100270000000140000001000000004000000000056
:1002800000000506105400000000000000000000FF
:10029000000000000000000000000000000000005E
:1002A0000000001F062000040402020001280001D3
:1002B00000180404050500022803010E0300002AAB
:1002C00004140A001F06201C0A00032A0001424CE5
:1002D0004520536869656C6404040505000428031F
:1002E00001020500001F062038012A06040302004F
:1002F000052A010100000404050500062803010287
:100300000700042A06001F06205404090800072AD3
:1003100004010600120000000A00040402020008A2
:10032000280001011804001F0620700405050009BB
:10033000280301220A00052A26040504000A2A05CA
:1003400001000000004614001F06208C0302000B71
:10035000290201000004041010000C2800011E9462
:100360008DF1483194BA754C001F0620A83E50000C
:10037000003D7104041313000D280301040E001E38
:10038000948DF1483194BA754C001F0620C43E503C
:1003900003003D7144101400000E00030200000031
:1003A00000000000000000000000001F0620E00028
:1003B00000000000000004041313000F28030110C4
:1003C00010001E948DF1483194BA75001F0620FC70
:1003D0004C3E5002003D7114001400001000020257
:1003E000000000000000000000000000001F0621C7
:1003F000180000000000000000461403020011294C
:1004000002010000040402020012280001001F067D
:1004100021340A18040405050013280301021400FE
:10042000272A0404090100142A27010A0000000AEF
:100430000621500000000000000000000000000045
:1004400000000000000000000000000000000000AC
:100450001F0640002A0001008004000300002A0556
:1004600001000404000A000B000302000804000E4F
:10047000001906401C0000000202000204001000E7
:10048000112A270100800400140000000000000071
:100490000000130650001E948DF1483194BA754C3B
:1004A0003E5000003D710000000000000000000010
:1004B00000000012066000000000000000000000C4
:1004C000000000000000000000000000000000002C
:1004D000000000000606F000033D6C000000000074
:1004E000000000000000000000000000000000000C
:1004F0000000000000000000240027002A002D005A
:10050000300000000000250028002B002E003100E4
:10051000000000002300260029002C002F00040406
:10052000040404030405020202020403020202029C
:100530000606060606060404020202040408020176
:10054000104080401020408040800802040180401C
:10055000201002011080102040400000000200081E
:100560000E0000030401000B00000000000000006A
:100570000000000000000000070605040100080A52
:100580000B0C0D09080B0002020201000904000017
:1005900001020200000524001001052401010104EC
:1005A0002402060524060001070581031000400906
:1005B000040100020A0000000705020240000007D3
:1005C0000583024000000403090422035500530080
:1005D0004200200049004F00200042006F006100EF
:1005E0007200640020002000200020001803550045
:1005F0006E006B006E006F0077006E002000200020
:10060000200020001201000200000040EB0304243F
:100610000001010200011201000202000040EB0390
:10062000042400010102000100C18081C10501090B
:1006300002A1010901A1008501050919012903157C
:10064000002501950375018102950175058103055A
:10065000010930093109381581257F750895038115
:1006600006C0C005010906A1018502050719E02998
:10067000E71500250175019508810295017508812E
:10068000039506750815002565050719002965817C
:1006900000C009040200010300000009210101005B
:1006A00001226500070584034000010000000000EE
:1006B0000000002A2B2800000000000000000000BD
:1006C00000000000000000000000002C9EB4A0A16B
:1006D000A2A434A6A7A5AE362D3738271E1F202189
:1006E0002223242526B333B62EB7B89F8485868768
:1006F00088898A8B8C8D8E8F909192939495969702
:1007000098999A9B9C9D2F3130A3AD35040506071F
:1007100008090A0B0C0D0E0F1011121314151617E1
:1007200018191A1B1C1DAFB1B0B500006912F615DF
:10073000C61811241FBECFEFDAE0DEBFCDBF12E036
:10074000A0E0B1E0E0E3F4E302C005900D92AA322C
:10075000B107D9F714E0AAE2B2E001C01D92AF3BA5
:10076000B107E1F717E0C2E3D7E004C02297FE012A
:100770000E94121ACC32D107C9F70E9434130C948C
:10078000161A0C940000FB01DC0102C005900D92CA
:1007900041505040D8F70895FB01DC0102C00190A0
:1007A0000D9241505040D8F70895FB01DC010190B3
:1007B0000D920020E1F708950E948C0B833009F51B
:1007C0000E94680B84349105E1F40E94680B863422
:1007D0009105B9F40E94680B8535910591F487E77E
:1007E00097E7909301088093000828E088E190E063
:1007F0000FB6F894A895809360000FBE2093600018
:10080000FFCF0E94850D8DE061E00E94BC1164EF76
:1008100071E080E090E00E9480108DE060E00E9436
:10082000BC1164EF71E080E090E00E9480100895B8
:100830008DE061E00E942F118DE061E00E94BC110B
:1008400080E091E00E94470E84E00E94340E0E94F6
:100850005D0E0895882319F48CB5806202C08CB5B2
:100860008F7D8CBD08959CB5937F982B9CBD08957A
:100870002CB5382F33702C7F322B3CBD2DB590E03A
:10088000959587959595879581702E7F822B8DBD47
:10089000089581E161E00E94BC1181E161E00E9464
:1008A0002F118CB580618CBD8CB580648CBD8FE0C0
:1008B00061E00E942F1180E161E00E942F110895F4
:1008C000FC0181E0808389E081830895FC01DB01E4
:1008D00085E080838FE0818311968C9111978383CB
:1008E0008C91828313968C911397858312968C91A9
:1008F00084830895FC0181E080838EE081830895E4
:10090000FC0181E0808383E181830895DC014E5FF7
:100910004C93425085E111968C931197FB01819184
:1009200012968C9312971396CD01BF0150E00E944E
:10093000CC030895DC014E5F4C9342508DE011963C
:100940008C931197FB01819112968C9312971396B9
:10095000CD01BF0150E00E94CC0308951F93CF93B7
:10096000DF93EC01CB57DF4F1881C558D04031F4ED
:1009700089E091E069EA70E00E94AF0E30E0812FDB
:1009800090E0019683709070CC57DF4F2881281734
:1009900009F431E0832FDF91CF911F910895CF9318
:1009A000DF93EC01009731F489E091E060E970E0B9
:1009B0000E94AF0EF894789430E0CB57DF4F8881D7
:1009C00090E0019683709070FE012291281709F43F
:1009D00031E0832FDF91CF910895CF93DF93EC0126
:1009E000009731F489E091E066E870E00E94AF0E74
:1009F00020E0FE01EB57FF4FCC57DF4F98818081FD
:100A0000981709F421E0822FDF91CF910895CF93B9
:100A1000DF93EC01009731F489E091E067E770E043
:100A20000E94AF0EF894789420E0FE01EB57FF4F40
:100A3000CC57DF4F98818081981709F421E0822FED
:100A4000DF91CF910895CF93DF93EC01009731F4BC
:100A500089E091E062E270E00E94AF0ECC57DF4F78
:100A600019921882C558D040FE0180E0118212828E
:100A70008F5FB1968430D1F7DF91CF9108950F93B6
:100A80001F93CF93DF93EC018B01009731F489E042
:100A900091E060EB70E00E94AF0E0115110531F49A
:100AA00089E091E061EB70E00E94AF0ECE010E9400
:100AB0000705882311F080E013C0CC57DF4F8881F1
:100AC000FE01E458F04021E2829FC0011124D801C8
:100AD000E80FF91F81E201900D928150E1F781E06A
:100AE000DF91CF911F910F910895DF92EF92FF92C6
:100AF0000F931F93CF93DF93EC017B01FB01D18018
:100B0000009731F489E091E064E670E00E94AF0E56
:100B1000E114F10431F489E091E065E670E00E94AF
:100B2000AF0ECE010E94AE04882311F080E02EC0EB
:100B30008E010B571F4FF801808190E0FC0125E0EA
:100B4000EE0FFF1F2A95E1F7E80FF91FEC0FFD1FCD
:100B50001082F801208181E2289F900111242F5FEB
:100B60003F4F2C0F3D1FED2DF0E03196A7014F5F59
:100B70005F4FC901BA01AF010E94CC03F801808127
:100B800090E0019683709070808381E0DF91CF9137
:100B90001F910F91FF90EF90DF900895DF92EF92F9
:100BA000FF920F931F93CF93DF93EC017B01FB0127
:100BB000D180009731F489E091E061E570E00E9416
:100BC000AF0EE114F10431F489E091E062E570E0E8
:100BD0000E94AF0ECE010E94CF04882311F080E066
:100BE0002EC08E010B571F4FF801808190E0FC0151
:100BF00035E0EE0FFF1F3A95E1F7E80FF91FEC0F14
:100C0000FD1F1082F801208181E2289F90011124AC
:100C10002F5F3F4F2C0F3D1FED2DF0E03196A701C8
:100C20004F5F5F4FC901BA01AF010E94CC03F801C9
:100C3000808190E0019683709070808381E0DF91E5
:100C4000CF911F910F91FF90EF90DF9008950F9338
:100C50001F93CF93DF93EC018B01009731F489E070
:100C600091E06FE370E00E94AF0E0115110531F4C1
:100C700089E091E060E470E00E94AF0ECE010E9436
:100C8000ED04882311F080E01AC0CC57DF4F988123
:100C9000C458D04081E2989FF0011124D801EC0F94
:100CA000FD1F01900D928150E1F7FE01EC57FF4FBF
:100CB000808190E0019683709070808381E0DF9165
:100CC000CF911F910F9108950F931F93CF93DF93AF
:100CD000EC018B01009731F489E091E06FE270E064
:100CE0000E94AF0E0115110531F489E091E060E337
:100CF00070E00E94AF0ECE010E940705882311F01C
:100D000080E01AC0CC57DF4F9881C458D04081E2B0
:100D1000989FF0011124D801EC0FFD1F01900D9256
:100D20008150E1F7FE01EC57FF4F808190E0019682
:100D300083709070808381E0DF91CF911F910F913C
:100D40000895EF92FF920F931F93CF93DF938C013F
:100D5000EB01FF2481E2E82E20C0D8011F96ED911F
:100D6000FC9150979E9DC0011124E80FF91F319608
:100D70004491319750E04E5F5F4F89E393E0BF01AC
:100D80000E94C30389E393E00E94D407882351F0B3
:100D900088818F5F8883FF24F3949881F80181898B
:100DA0009817D8F28F2DDF91CF911F910F91FF905F
:100DB000EF9008959F92AF92BF92CF92DF92EF9201
:100DC000FF920F931F93DF93CF930F92CDB7DEB7B0
:100DD0005C0119820E94C709882311F481E049C08F
:100DE00089E393E00E94110A882311F082E041C058
:100DF000C5018E010F5F1F4FB8010E94A106CC24D0
:100E0000DD247601902E012F0BC08FEFC8168FEFD7
:100E1000D8068FE0E80680E0F80610F083E029C0ED
:100E20000894C11CD11CE11CF11C89E393E00E94D1
:100E3000110A882351F380913B03843811F085E037
:100E400018C010913D03113021F0123051F084E0B0
:100E500010C0C501692D702F0E94A106CC24DD248D
:100E60007601C50169E373E00E94CA09123069F690
:100E700080E00F90CF91DF911F910F91FF90EF9045
:100E8000DF90CF90BF90AF909F9008958AE292E05C
:100E90000E9407050895FF920F931F93CF93DF934E
:100EA0008C01EB01E0913703F0913803818160E020
:100EB0000E94BC11F80181818EBD0DB407FEFDCFEB
:100EC0008EB58883F80182818EBD0DB407FEFDCFFB
:100ED0005EB55983F8014181442349F0242F30E065
:100EE000852F90E08217930714F4542F5150F52E5C
:100EF000FFE1F51710F48FE1F82E4C2FD801CE0149
:100F0000FC010BC013968C9113978EBD0DB407FE98
:100F1000FDCF8EB58283319611968E2F841B8F154F
:100F200088F3E0913703F0913803818161E00E94FA
:100F3000BC118F2DF11081E0DF91CF911F910F91A6
:100F4000FF9008950F931F93CF93DF93EC010981D6
:100F50008BE994E0602F4AE050E00E948B148BE90B
:100F600094E065E471E00E942D1510E0FE01E10FB0
:100F7000F11D8BE994E0618140E150E00E948B1407
:100F80008BE994E06DEA70E00E9477131F5F011710
:100F900068F78BE994E06CEA70E00E94BA13DF9185
:100FA000CF911F910F9108951F93CF93DF93EC0181
:100FB0008981803210F010E023C08AE292E0BE0105
:100FC0000E94CE05182F8823D9F080EB92E00E9472
:100FD000CF04882341F4E0913703F09138038181F5
:100FE00060E00E94BC1180913603882349F08BE9B0
:100FF00094E068E471E00E942D15CE010E94A207E2
:10100000812FDF91CF911F910895E0913703F091E7
:10101000380387818F3F89F161E00E942F11E091B1
:101020003703F09138038081813099F4878161E042
:101030000E94BC1164E670E080E090E00E948010A5
:10104000E0913703F0913803878160E00E94BC1182
:101050000895878161E00E94BC11E0913703F0910F
:101060003803878160E00E94BC11E0913703F09162
:101070003803878161E00E94BC110895CF93DF930C
:10108000EC016093360390933803809337030E94FA
:10109000490480E00E942A048E810E94380480E086
:1010A0000E9433048AE292E00E94230580EB92E0E2
:1010B0000E9423058A8162E00E942F11898161E0EC
:1010C0000E942F1188858F3F19F060E00E942F1138
:1010D0000E9405088C8160E00E94BC118B8160E059
:1010E0000E94BC11898161E00E94BC118D8160E089
:1010F0000E94BC116EE170E080E090E00E948010E0
:101100008A85882339F08B856DE878E040E050E0EF
:101110000E94D40EDF91CF910895DF93CF93CDB786
:10112000DEB7C254D0400FB6F894DEBF0FBECDBFBD
:1011300010926400109265008AE292E0BE016F5F37
:101140007F4F0E942706882311F419821A82CE014C
:101150000196BE016E5D7F4F0E944B0780EB92E0CF
:101160000E94AE04882371F48AE292E00E94ED04AA
:10117000882341F4E0913703F0913803818160E0E6
:101180000E94BC118BA18823B9F080EB92E0BE01D4
:101190006E5D7F4F0E947505882309F4FFCF80EBB9
:1011A00092E00E94AE04882339F0E0913703F09179
:1011B000380383850E94290FCE5BDF4F0FB6F8946A
:1011C000DEBF0FBECDBFCF91DF910895DF93CF93E8
:1011D000CDB7DEB7C254D0400FB6F894DEBF0FBE15
:1011E000CDBF80EB92E00E94CF04882309F04BC072
:1011F000E0913703F091380382810E94EF1101974B
:1012000079F48AE292E00E9407058823E1F5E091F3
:101210003703F0913803818160E00E94BC1133C034
:101220008AE292E0BE016F5F7F4F0E9464068823CE
:1012300011F419821A82CE010196BE016E5D7F4FB4
:101240000E944B0780EB92E00E94CF04882371F448
:101250008AE292E00E940705882341F4E091370377
:10126000F0913803818160E00E94BC118BA188233A
:1012700051F080EB92E0BE016E5D7F4F0E94CE0583
:10128000882309F4FFCFCE5BDF4F0FB6F894DEBFA3
:101290000FBECDBFCF91DF9108951F93CF93DF9302
:1012A000EC01E0913703F09138038285882341F403
:1012B00080EB92E00E94CF04882311F40E94E6089C
:1012C00080EB92E00E94CF04182F80EB92E0BE01E9
:1012D0000E946406882391F180913603882349F0A7
:1012E0008BE994E06AE471E00E942D15CE010E9422
:1012F000A207112371F0E0913703F0913803828542
:10130000882339F083856DE878E040E050E00E9462
:10131000D40E80EB92E00E94CF04882371F48AE21D
:1013200092E00E940705882341F4E0913703F09191
:101330003803818160E00E94BC1181E0DF91CF9190
:101340001F910895CF93DF93EC01E0913703F09163
:1013500038038285882311F40E94E60880EB92E02E
:10136000BE010E943F05DF91CF910895262F26955B
:1013700026952695FC01E20FF11D848D90E06770A3
:1013800002C0959587956A95E2F7817008950E944D
:10139000460708950F931F93CF93DF938C01EB01C2
:1013A000CB010E944D09282F8823A9F18A81883812
:1013B00029F0893819F1863871F512C0DE01F8017B
:1013C0007C9690E013968C91139780831B968C915A
:1013D0001B9780879F5F11963196983099F71BC0B5
:1013E000F8017C9680E0108210868F5F31968830FD
:1013F000D1F7F80114A68389858B0DC08B819C8160
:10140000F801978B868B8D819E81918F808F8F8144
:101410009885938F828F822FDF91CF911F910F91AB
:1014200008950E94A20908950F931F930AE313E001
:10143000C8010E948004C80101970E94D4071F912F
:101440000F9108951F93DF93CF93CDB7DEB76597C4
:101450000FB6F894DEBF0FBECDBF582F142F282F24
:1014600030E0C901880F991F820F931FE09162033A
:10147000F0916303E80FF91F3397818192818230E5
:10148000910511F00497C1F41531B0F459839E0110
:101490002E5F3F4FC901412F50E00E94CC038AE3E9
:1014A00093E0BE016F5F7F4F412F0E94860489E366
:1014B00093E00E94D40701C080E065960FB6F894CF
:1014C000DEBF0FBECDBFCF91DF911F9108950F9367
:1014D0001F93DF93CF9300D000D0CDB7DEB79A83B0
:1014E00089837C836B830AE313E0C801BE016F5FCD
:1014F0007F4F0E946604C80101970E94D4070F9095
:101500000F900F900F90CF91DF911F910F91089541
:101510001F93DF93CF93CDB7DEB765970FB6F894DF
:10152000DEBF0FBECDBF122F262F30E0C901880FBE
:10153000991F820F931FE0916203F0916303E80FFC
:10154000F91F339780818130C9F41531B8F469836C
:101550009E012E5F3F4FC901BA01412F50E00E940A
:10156000CC038AE393E0BE016F5F7F4F412F0E945F
:101570009A0489E393E00E94D40701C080E0659655
:101580000FB6F894DEBF0FBECDBFCF91DF911F9194
:1015900008950F931F930AE313E0C8010E946004AB
:1015A000C80101970E94D4071F910F9108950F93CE
:1015B0001F930AE313E0C8010E947A04C80101974F
:1015C0000E94D4071F910F910895CF93DF93EC01F0
:1015D0008881823008F049C064E670E080E090E0E5
:1015E0000E9480100E94D70ACE0169E373E00E9436
:1015F000CA098823C9F380913B038438A9F78091F5
:101600003D03833861F484E080933A0381E880935A
:101610003B0382E080933C0310923D030EC088237D
:1016200079F484E080933A0381E880933B0383E07C
:1016300080933C0310923D0382E080933E030FC0F1
:10164000823899F484E080933A0381E880933B03E5
:1016500081E080933C0310923D0310923E0380EBA7
:1016600092E069E373E00E94CE05DF91CF91089587
:10167000CF93DF93EC01FC017C96AAE5B3E01082E6
:1016800010861D92319683E0A236B807C1F71092FA
:10169000640310926803109267031092650310921E
:1016A0006603109269038C859D85909363038093F4
:1016B00062038F85988990936B0380936A03CE01B0
:1016C0000E943E08CE010E94E50ADF91CF91089565
:1016D00040910004442319F42FEF3FEF1BC0809189
:1016E000EF019091F0018154944031F481E094E055
:1016F0009093F0018093EF01E091EF01F091F00100
:101700008191282F30E0F093F001E093EF014150F8
:1017100040930004C90108958091000408951F9327
:101720008DE693E06CED73E00E94CA09882309F40A
:101730009DC18091DE03863809F4C7C0873880F4E4
:10174000833809F45FC1843820F4813809F0CFC1AF
:101750001AC0843809F459C0853809F0C8C185C059
:101760008A3809F4FCC08B3838F4883809F48FC003
:10177000893809F0BCC1A4C08C3809F4BCC08D38CC
:1017800009F0B5C10BC18091E10380938003809182
:10179000DF03823021F0833009F0A9C10AC08BE950
:1017A00094E063EE71E00E94BA1381E080934304F9
:1017B0009EC18BE994E067EC71E00E94BA138091BE
:1017C000E003882339F064E170E080E090E00E945B
:1017D00080108DC1A2EEB1E0FD0101900020E9F77B
:1017E0003197EA1BFB0B8DE693E061E0AD012E2FF4
:1017F0000E94880A80E090E060E570E00E94670A3D
:101800008BE994E063EB71E02EC18091E0038823C3
:10181000F1F08BE994E066EA71E00E947713609141
:10182000DF038BE994E070E040E150E00E940E1588
:101830008BE994E06DE871E00E9477136091E0031A
:101840008BE994E070E040E150E00E940E15809139
:10185000DF03893009F04BC18DE693E065E041EE8E
:1018600053E029E00E94880A42C181E08093FE0390
:101870008BE994E06FE771E00E94BA131092FF03C6
:1018800080918003809382030E94C90A30C18BE952
:1018900094E06FE671E00E94BA138DE693E064E095
:1018A0000E94B609882309F422C18091FF0388238E
:1018B00009F01DC10E94140A81E08093FF0317C143
:1018C0008BE994E06AE471E0CEC01092FE0381E0FF
:1018D0008093DB038BE994E063E271E00E94BA132A
:1018E00080E090E060E570E00E94670A8BE994E098
:1018F0006FE071E0B8C08BE994E061E071E00E94B4
:1019000077138BE994E06091DF034AE050E00E9496
:101910009D1440910004E091ED01F091EE01A0EEE4
:10192000B3E020E030E00DC0403491F084E0E134D9
:10193000F80711F4E1E0F4E08D9181932F5F3F4FC0
:101940004F5F8091DD0390E002972817390764F319
:1019500040930004F093EE01E093ED01C8C0809144
:10196000DF0390918203890F809382038BE994E0D7
:101970006DE471E00E942D158BE994E066E671E05C
:101980000E942D158BE994E0609182034AE050E0BB
:101990000E949D1481E08093DB03A9C08BE994E051
:1019A00065EE70E00E9477138BE994E06091DF03AD
:1019B0004AE050E00E948B148BE994E06FEC70E0F9
:1019C0000E9477138BE994E06091E00340E150E0DE
:1019D0000E949D148091E003823929F08091820356
:1019E0008F5F809382038BE994E066E671E00E944A
:1019F0002D158BE994E0609182034AE050E00E944B
:101A00009D1475C08BE994E064EC70E00E9477133C
:101A10006091DF037091E0038BE994E04AE050E0CD
:101A20000E946E1410E008C0E452FC4F8BE994E071
:101A300065810E9480121F5FE12FF0E08091DD033D
:101A400090E00297E817F9077CF38BE994E00E9495
:101A50009A1380E090E060E570E00E94670A8BE9ED
:101A600094E060EB70E00E94BA1341C080914204A0
:101A7000882309F43CC080917A008F7780937A00A4
:101A800080917B008F7B80937B001FBEA89584B7DD
:101A9000877F84BF8091600088618093600010928E
:101AA00060008FB780688FBF85B7806885BF8FEF74
:101AB00080937E008DB3887F8DBB809168008E7F80
:101AC0008093680010926B008DEA8093640089E92E
:101AD0008093650083B7817F846083BF83B7816013
:101AE00083BF7894889583B78E7F83BF78948091E5
:101AF0004304882341F08DE693E00E94DA068823B0
:101B000011F4109243041F9108951F938CB5809394
:101B10006C0380E00E942A0485E00E94380480E083
:101B20000E9433048DE693E064E00E94B6098823A6
:101B300009F493C080919A03882309F48EC010E0C1
:101B400045C065567C4F84E044E10E94220A882308
:101B5000A9F08BE994E06EE771E00E942D158BE906
:101B600094E064E170E04AE050E00E94FB148BE9ED
:101B700094E060EA71E00E942D1506C08BE994E0C4
:101B800065EA71E00E94301580919A038451809338
:101B90009A03809182038150809382038BE994E0C1
:101BA00066E671E00E942D158BE994E06091820356
:101BB0004AE050E00E949D141092DB0302C00E9494
:101BC0008F0B8091DB038823D1F31C5E40919A0335
:101BD000612F70E0453108F0B4CF65567C4F84E04A
:101BE0000E94220A8823A9F08BE994E06EE771E055
:101BF0000E942D158BE994E060919A034AE050E031
:101C00000E948B148BE994E060EA71E00E942D152C
:101C100006C08BE994E065EA71E00E9430151092ED
:101C20009A03809182038150809382038BE994E030
:101C300066E671E00E942D158BE994E060918203C5
:101C40004AE050E00E949D141092DB0302C00E9403
:101C50008F0B8091DB038823D1F30E948F0B80913F
:101C60006C038CBD1F9108951F93182F61E00E9493
:101C70002F11812F61E00E94BC11812F60E00E9432
:101C8000BC11812F61E00E94BC111F910895BC011D
:101C9000FC0101900020E9F73197E81BF90BEB30CC
:101CA00038F08BE994E06BEB71E00E942D150895FC
:101CB00082EE91E00E94D50308958CB580936C0369
:101CC00080E00E942A0485E00E94380480E00E949F
:101CD000330481EF91E090937A038093790325E0B8
:101CE00020937B038DEF91E090937D0380937C03A1
:101CF00087E180937E0310926D038091E0018093D1
:101D00006E038091E10180936F0380E18093700303
:101D10008EE0809371038FE08093720320937303AE
:101D20008FEF809374038093750380937603809183
:101D30004204882321F081E08093770302C010924F
:101D4000770384E0809378038DE693E060E00E945F
:101D5000380B80916C038CBD0E9449040895EF926A
:101D6000FF920F931F938C017B018BE994E064ED4C
:101D700071E00E942D158BE994E0B8010E942D15A9
:101D80008BE994E06BED71E00E942D158BE994E0F6
:101D9000B7014AE050E00E945D148BE994E06EEDDB
:101DA00071E00E942D15FFCF853008F051C0E82F5B
:101DB000F0E0EE0FFF1FEC5BFB4F7183608382301E
:101DC00009F1833030F4882349F0813009F040C0B4
:101DD0000DC0833021F18430D9F52EC08091690087
:101DE0008C7F842B80936900E89A08958091690024
:101DF000440F551F440F551F837F842B8093690028
:101E0000E99A08958091690034E0440F551F3A958E
:101E1000E1F78F7C842B80936900EA9A0895809182
:101E2000690026E0440F551F2A95E1F78F73842B34
:101E300080936900EB9A089580916A0094E0440FC2
:101E4000551F9A95E1F78F7C842B80936A00EE9A58
:101E500008958530F8F4823081F0833028F48823A7
:101E600041F0813079F407C0833049F0843051F477
:101E700008C0E89807C0E99805C0EA9803C0EB9845
:101E800001C0EE98E82FF0E0EE0FFF1FEC5BFB4F78
:101E90001182108208951F920F920FB60F92112493
:101EA0002F933F934F935F936F937F938F939F9362
:101EB000AF93BF93EF93FF938091440490914504B7
:101EC000892B29F0E0914404F09145040995FF9194
:101ED000EF91BF91AF919F918F917F916F915F91A2
:101EE0004F913F912F910F900FBE0F901F9018951B
:101EF0001F920F920FB60F9211242F933F934F937F
:101F00005F936F937F938F939F93AF93BF93EF9361
:101F1000FF938091460490914704892B29F0E0912A
:101F20004604F09147040995FF91EF91BF91AF915D
:101F30009F918F917F916F915F914F913F912F91E1
:101F40000F900FBE0F901F9018951F920F920FB613
:101F50000F9211242F933F934F935F936F937F932F
:101F60008F939F93AF93BF93EF93FF938091480418
:101F700090914904892B29F0E0914804F09149049B
:101F80000995FF91EF91BF91AF919F918F917F91B3
:101F90006F915F914F913F912F910F900FBE0F90D6
:101FA0001F9018951F920F920FB60F9211242F9326
:101FB0003F934F935F936F937F938F939F93AF93D1
:101FC000BF93EF93FF9380914A0490914B04892B28
:101FD00029F0E0914A04F0914B040995FF91EF91AB
:101FE000BF91AF919F918F917F916F915F914F9131
:101FF0003F912F910F900FBE0F901F9018951F9239
:102000000F920FB60F9211242F933F934F935F932C
:102010006F937F938F939F93AF93BF93EF93FF93B0
:1020200080914C0490914D04892B29F0E0914C044F
:10203000F0914D040995FF91EF91BF91AF919F9160
:102040008F917F916F915F914F913F912F910F9061
:102050000FBE0F901F9018951F920F920FB60F9200
:1020600011242F933F934F935F936F937F938F939D
:102070009F93AF93BF9320915204309153044091AA
:1020800054045091550470915604DA01C901029626
:10209000A11DB11D672F6A5F6D3730F06D57DA01F2
:1020A000C9010396A11DB11D60935604809352048B
:1020B00090935304A0935404B093550480914E041C
:1020C00090914F04A0915004B09151040196A11D2C
:1020D000B11D80934E0490934F04A0935004B0938D
:1020E0005104BF91AF919F918F917F916F915F91BB
:1020F0004F913F912F910F900FBE0F901F90189509
:102100009B01AC017FB7F89480914E0490914F04ED
:10211000A0915004B091510466B5A89B05C06F3FD3
:1021200019F00196A11DB11D7FBFBA2FA92F982FBD
:102130008827860F911DA11DB11D63E0880F991F8F
:10214000AA1FBB1F6A95D1F7BC012DC0FFB7F89439
:1021500080914E0490914F04A0915004B09151048D
:10216000E6B5A89B05C0EF3F19F00196A11DB11D72
:10217000FFBFBA2FA92F982F88278E0F911DA11D61
:10218000B11DE3E0880F991FAA1FBB1FEA95D1F785
:10219000861B970B885E9340C8F221503040404028
:1021A000504068517C4F211531054105510571F6AC
:1021B0000895789484B5826084BD84B5816084BDBF
:1021C00085B5826085BD85B5816085BDEEE6F0E0B0
:1021D000808181608083E1E8F0E01082808182600C
:1021E0008083808181608083E0E8F0E0808181608D
:1021F0008083E1E9F0E0808182608083808181607A
:102200008083E0E9F0E0808181608083E1ECF0E0B0
:10221000808184608083808182608083808181600E
:102220008083E3ECF0E0808181608083E0ECF0E08B
:10223000808182608083E2ECF0E080818160808335
:10224000EAE7F0E08081846080838081826080831F
:102250008081816080838081806880830895CF93AE
:10226000DF93482F50E0CA01845C9A4FFC013491FF
:10227000425E5A4FFA018491882369F190E0880FF9
:10228000991FFC01EC50FB4FA591B491FC01EE5F4E
:10229000FA4FC591D491662351F42FB7F8948C91DD
:1022A000932F909589238C93888189230BC062306A
:1022B00061F42FB7F8948C91932F909589238C9388
:1022C0008881832B88832FBF06C09FB7F8948C9199
:1022D000832B8C939FBFDF91CF910895883071F14C
:1022E000893068F4823031F1833020F4813009F094
:1022F00042C01DC0833089F08430E9F512C08B30B4
:1023000059F18C3028F48930E9F08A30A1F51EC0EB
:102310008C3031F18E3079F529C0809180008F7733
:1023200003C0809180008F7D80938000089584B5E4
:102330008F7702C084B58F7D84BD08958091900011
:102340008F7707C0809190008F7D03C080919000AF
:10235000877F8093900008958091C0008F7703C09D
:102360008091C0008F7D8093C00008958091C2004D
:10237000877F8093C2000895FF920F931F93F62EDC
:10238000482F50E0CA01865A9A4FFC012491CA0195
:10239000845C9A4FFC011491425E5A4FFA010491F9
:1023A0000023C9F0222319F0822F0E946E11E02F22
:1023B000F0E0EE0FFF1FEE5FFA4FA591B4919FB7CB
:1023C000F894FF2021F48C911095812302C08C9108
:1023D000812B8C939FBF1F910F91FF9008950F93B6
:1023E0001F93482F50E0CA01865A9A4FFC0124914E
:1023F000CA01845C9A4FFC010491425E5A4FFA0173
:102400001491112319F420E030E015C0222319F0B3
:10241000822F0E946E11812F90E0880F991F805F9C
:102420009A4FFC01A591B4918C9120E030E080237B
:1024300011F021E030E0C9011F910F910895209122
:102440009704309198048091990490919A04281BE4
:10245000390B2F733070C901089520919704309182
:1024600098048091990490919A042817390719F4D7
:102470002FEF3FEF09C0E0919904F0919A04E95AD7
:10248000FB4F8081282F30E0C901089520919704E7
:10249000309198048091990490919A0428173907F3
:1024A00019F42FEF3FEF13C0E0919904F0919A04D3
:1024B000E95AFB4F20818091990490919A040196EA
:1024C0008F73907090939A048093990430E0C901BF
:1024D000089510929E0410929D0488EE93E0A0E06F
:1024E000B0E080939F049093A004A093A104B093C4
:1024F000A2048EE092E090939C0480939B04089544
:102500000F931F93DF93CF930F92CDB7DEB78C015C
:10251000698380910702882369F083E0BE016F5FC1
:102520007F4F41E050E00E9417161816190614F468
:102530009C0107C081E090E0F8019383828320E052
:1025400030E0C9010F90CF91DF911F910F91089555
:1025500083E00E94EC150895CF93DF9312C082E0D0
:102560000E9477152FEF8F3F9207C9F0E0919704F3
:10257000F0919804E95AFB4F8083D0939804C0935C
:102580009704C0919704D09198042196CF73D0708E
:102590008091990490919A04C817D90701F7DF91A7
:1025A000CF910895FC0180818E5F808380E864E88C
:1025B00075E042E450E00E9490150895FC0181818D
:1025C0009081913A59F4813209F04CC080E060E08A
:1025D00072E047E050E00E94901542C0913209F04D
:1025E00041C0803239F480E092E067E070E00E9400
:1025F000D41536C0823209F035C08281809307023B
:102600008091000290910102A0910202B091030218
:10261000805B9440A040B04019F58091070280FD96
:1026200012C087E797E790930108809300082BE09A
:1026300088E190E00FB6F894A895809360000FBEF3
:10264000209360000DC088E10FB6F894809360007D
:10265000109260000FBEA895109201081092000819
:1026600081E0089580E00895CF93DF930E94D91010
:1026700081EB94E00E94F71589B5806189BD09B4AA
:1026800000FEFDCF0E941804C0E0D0E00E94DC03F1
:102690002097E1F30E940000F9CFCF92DF92EF92F2
:1026A000FF920F931F93CF93DF937C016B018A01FD
:1026B000C0E0D0E00FC0D6016D916D01D701ED9162
:1026C000FC910190F081E02DC7010995C80FD91F39
:1026D000015010400115110571F7CE01DF91CF9126
:1026E0001F910F91FF90EF90DF90CF900895EF92A0
:1026F000FF920F931F93CF93DF937C018B01C0E078
:10270000D0E0F8010F5F1F4F6491662359F0D701A5
:10271000ED91FC910190F081E02DC7010995C80F62
:10272000D91FEFCFCE01DF91CF911F910F91FF9075
:10273000EF900895EF92FF920F931F938C01DC01AD
:10274000ED91FC910190F081E02D6DE009957C0107
:10275000D801ED91FC910190F081E02DC8016AE073
:1027600009959C012E0D3F1DC9011F910F91FF90EE
:10277000EF900895EF92FF920F931F937C010E94B8
:1027800077138C01C7010E949A139C01200F311FFF
:10279000C9011F910F91FF90EF900895CF93DF93A0
:1027A000EC016115710519F420E030E00FC0DB0188
:1027B0000D900020E9F71197A61BB70BE881F9816E
:1027C0000280F381E02DAD0109959C01C901DF91E3
:1027D000CF9108954F925F927F928F929F92AF9286
:1027E000BF92CF92DF92EF92FF920F931F93DF93EE
:1027F000CF93CDB7DEB7A1970FB6F894DEBF0FBE6B
:10280000CDBF2C01742ECB01223008F42AE019A28E
:1028100031E2C32ED12CCC0EDD1E822E9924AA24A7
:10282000BB24672D752FA50194010E94EE19790133
:102830008A01C801B701A50194010E94CF19472D53
:10284000461B0894C108D1084A3014F4405D01C009
:10285000495CF6014083E114F1040105110521F002
:102860007E2C5F2DC801DDCFC201B6010E94CE13C0
:10287000A1960FB6F894DEBF0FBECDBFCF91DF910A
:102880001F910F91FF90EF90DF90CF90BF90AF908E
:102890009F908F907F905F904F900895DC0121155D
:1028A000310541F4ED91FC910190F081E02D642F10
:1028B000099508950E94EA130895EF92FF920F93ED
:1028C0001F939A017B0100E010E0B801A7010E946C
:1028D0004E141F910F91FF90EF900895CF92DF92C9
:1028E000EF92FF920F931F936C017B019A0100E01E
:1028F00010E0B801A7010E944E148C01C6010E948D
:102900009A13080F191FC8011F910F91FF90EF90A4
:10291000DF90CF900895EF92FF920F931F939A014B
:10292000E62EFF2400E010E0B801A7010E944E143B
:102930001F910F91FF90EF900895CF92DF92EF9249
:10294000FF920F931F936C01E62E9A01FF2400E083
:1029500010E0B801A7010E944E148C01C6010E942C
:102960009A13080F191FC8011F910F91FF90EF9044
:10297000DF90CF900895CF92DF92EF92FF920F9366
:102980001F93CF93DF93EC016A017B012115310581
:1029900041F4E881F9810190F081E02D642F0995DF
:1029A0001FC02A303105D1F477FF17C0E881F981C3
:1029B0000190F081E02D6DE209958C0144275527A7
:1029C000BA014C195D096E097F09CE012AE00E9407
:1029D000EA139801280F391F04C02AE00E94EA1365
:1029E0009C01C901DF91CF911F910F91FF90EF9052
:1029F000DF90CF900895EF92FF920F931F937B018A
:102A00009A010027F7FC0095102FB801A7010E943A
:102A1000BB141F910F91FF90EF900895CF92DF921A
:102A2000EF92FF920F931F936C017B019A01002795
:102A3000F7FC0095102FB801A7010E94BB148C0170
:102A4000C6010E949A13080F191FC8011F910F9108
:102A5000FF90EF90DF90CF9008950E94CE130895DD
:102A6000EF92FF920F931F937C010E94CE138C0173
:102A7000C7010E949A13080F191FC8011F910F91D7
:102A8000FF90EF900895282F8091AB048823C1F028
:102A900057FF1AC015C0289A9093AA048091F1009C
:102AA0008193E217F307B9F74115510539F0809189
:102AB000F200882319F48BE68093E800AFBF02C0D0
:102AC0004FEF5FEFCA010895AFB7F89427702093D6
:102AD000E9008091F200282F30E0241735070CF42C
:102AE000A901FB019B01240F311D94E6DACFDF938E
:102AF000CF930F92CDB7DEB7BE016F5F7F4F41E03E
:102B000050E00E944315019719F02FEF3FEF03C0EB
:102B10008981282F30E0C9010F90CF91DF9108956E
:102B2000FF920F931F93F82E142F052F4091AE04A0
:102B30005091AF04212F302FC901DC01FB016EEF52
:102B400029C0F7FE02C0949101C090812091AC048D
:102B50003091AD0424173507ACF48091E8008570FE
:102B6000E1F38091E80082FF03C02FEF3FEF17C031
:102B70009093F100C90101968F739070892B11F425
:102B80006093E8002F5F3F4F3093AD042093AC0477
:102B9000119731961097A9F6812F902F9C01C901AA
:102BA0001F910F91FF9008959C018091E80082FF92
:102BB000FCCFF901260F311D03C08091F1008193F4
:102BC000E217F307D1F7289A84E68093AA048BEFE3
:102BD0008093E800CB0108958093E9008091F20092
:102BE000882319F08AE38093E800089508951092ED
:102BF000AB0481E08093D70080EA8093D80082E024
:102C000089BD09B400FEFDCF61E070E080E090E096
:102C10000E94801080E98093D8008CE08093E200CD
:102C20001092E000559A209A5D98289808955F9236
:102C30006F927F928F929F92AF92BF92CF92DF92CC
:102C4000EF92FF920F931F93CF93DF93E82E842E82
:102C5000752E8091AB04882371F18B01242F352FC1
:102C6000C901EC017AEFF72E67E0962E9E2050E422
:102C7000552E8E2D90E040E2A42EB12CA822B92230
:102C80003AE3632E20E4C22ED12CC822D92258C0A8
:102C90009FB7F8949092E9008091E80085FD02C00A
:102CA00020E004C08091F200252D281B9FBF222325
:102CB00061F4FA9419F42FEF3FEF4DC061E070E03A
:102CC00080E090E00E9480103BC0822F90E0C81707
:102CD000D9070CF42C2FC21BD1094FB7F89490924E
:102CE000E900A114B10421F406C01092F1002150B2
:102CF0002223D9F719C0E7FC03C0F801922F10C0B6
:102D0000C801322F06C0FC010196E491E093F10066
:102D100031503323C1F706C081918093F100915067
:102D20009923D1F7020F111D8091E80085FF05C09E
:102D3000209729F4C114D10411F06092E8004FBF2C
:102D4000209709F0A5CF5D9A84E68093A904282DE9
:102D5000372DC9019C01C901DF91CF911F910F91BE
:102D6000FF90EF90DF90CF90BF90AF909F908F90AB
:102D70007F906F905F9008951F920F920FB60F9201
:102D800011242F933F934F935F936F937F938F9370
:102D90009F93AF93BF93EF93FF938091E1001092C5
:102DA000E100982F83FF0FC01092E90081E080932B
:102DB000EB001092EC0082E38093ED001092AB04E4
:102DC00088E08093F00092FF34C083E08093E900B4
:102DD0008091F200882319F08AE38093E8008FB78E
:102DE000F89492E09093E9009091F2008FBF9923BC
:102DF00021F08BE994E00E94AC128091A904882311
:102E000051F08091A90481508093A9048091A90474
:102E1000882309F45D988091AA04882351F0809159
:102E2000AA0481508093AA048091AA04882309F4FB
:102E30002898FF91EF91BF91AF919F918F917F91D2
:102E40006F915F914F913F912F910F900FBE0F9017
:102E50001F9018950F931F93DF93CF930F92CDB7C9
:102E6000DEB719828E010F5F1F4FC8010E94D21278
:102E7000C8010E94C319898190E00F90CF91DF9122
:102E80001F910F9108951F920F920FB60F92112468
:102E9000EF92FF921F932F933F934F935F936F9304
:102EA0007F938F939F93AF93BF93EF93FF93DF93A2
:102EB000CF93CDB7DEB76197DEBFCDBF1092E900EB
:102EC0008091E80083FF0FC1FE0131969E01275FCC
:102ED0003F4F03C08091F1008193E217F307D1F7D0
:102EE000289A84E68093AA0482EF8093E80099816F
:102EF00097FF05C08091E80080FFFCCF03C08EEFF4
:102F00008093E800292F30E0C90180769070892BEA
:102F100009F0C2C08A81882329F41092F10010922E
:102F2000F100D6C0813009F4D3C0833009F4D0C099
:102F3000853049F48091E80080FFFCCF8B81806868
:102F40008093E300C5C0863009F07CC01C81EF800F
:102F5000F8841230C1F51092E9001092AD0410927D
:102F6000AC041092AF041092AE040E942A1799E0AC
:102F7000FE013996DF01292F1D922A95E9F79987DD
:102F80001A8791E09E8790E8988B9AEF998B209111
:102F9000AC043091AD04275F3F4F3C872B878D8772
:102FA0001092E9001092AD041092AC04F092AF04BC
:102FB000E092AE0480E0BF0149E050E00E9490152D
:102FC0000E942A1785C01092E9001092AD04109259
:102FD000AC04F092AF04E092AE04123241F482E20B
:102FE00090E00E94BB19892B09F476C071C01130A2
:102FF00079F488E0E816F10419F481E08093B004D4
:103000008091B004882309F06BC0E4E0F6E013C0BF
:10301000133009F061C08B81882319F4E6ECF5E0E8
:103020000AC0823019F4EAECF5E005C0813009F0FD
:1030300053C0ECEEF5E0449180E8BF0150E00E94FF
:10304000901546C0873009F447C0883021F481E0EC
:103050008093F1003DC08930D9F523703070232B67
:10306000D9F5E9E2F6E091E031E026E39093E9005A
:103070003093EB0084918093EC002093ED009F5FF0
:103080003196953099F78EE78093EA001092EA0026
:103090008B818093AB041CC08F8198851092E900CE
:1030A0001092AD041092AC049093AF048093AE04E0
:1030B0008D81882329F4CE0101960E94DE1206C07C
:1030C000823051F4CE0101960E948C18882321F0A1
:1030D0008EEF8093E80007C081E28093EB0003C08D
:1030E000E6E1F6E0A8CF6196DEBFCDBFCF91DF91DC
:1030F000FF91EF91BF91AF919F918F917F916F91D0
:103100005F914F913F912F911F91FF90EF900F9002
:103110000FBE0F901F901895FC0191818081813A1C
:1031200031F4913089F080E0933089F40DC0813220
:1031300069F49B3021F482818093080205C09A30A3
:1031400029F482818093090281E0089580E0089546
:10315000EF92FF920F931F938C01E62EDC01ED910D
:10316000FC910480F581E02D0995F82ED801ED91B0
:10317000FC910680F781E02DC8016E2D09958F2DF9
:1031800090E01F910F91FF90EF9008951092B2047C
:103190001092B6041092B50480E292E09093B404C9
:1031A0008093B3040895EF92FF920F931F93DF93E0
:1031B000CF930F92CDB7DEB789838B017A0184E07C
:1031C000BE016F5F7F4F41E050E00E94171684E41C
:1031D000B801A7010E9417160F90CF91DF911F91A0
:1031E0000F91FF90EF90089582E048E050E00E9438
:1031F000D3180895FC011682178210861186128654
:10320000138614823496BF010E94F4180895DC01DD
:10321000683810F0685829C0E62FF0E067FF13C047
:10322000E058F04081E090E002C0880F991FEA95D5
:10323000E2F7809514962C911497282314962C93DA
:10324000149760E012C0E555F94F6491662319F4B4
:1032500020E030E01DC067FF08C014968C911497E1
:103260008D7F14968C9314976F77FD0190E0662301
:1032700021F08681861709F416829F5F3196963079
:10328000B1F7CD011496BD010E94F41821E030E0A1
:10329000C9010895CF93DF93DC01683810F06858B6
:1032A00025C0E62FF0E067FF12C0E058F04081E053
:1032B00090E002C0880F991FEA95E2F714962C91CE
:1032C0001497282B14962C93149760E00FC0E555A3
:1032D000F94F64916623D9F167FF08C014968C9169
:1032E0001497826014968C9314976F7716968C912E
:1032F00016978617A9F117968C911797861781F163
:1033000018968C911897861759F119968C911997E0
:10331000861731F11A968C911A97861709F11B9628
:103320008C911B978617E1F0ED01E0E0F0E09E2F15
:103330008E81882321F4EA0FFB1F668306C09F5FFE
:1033400031962196E630F10591F7963049F481E007
:1033500090E013969C938E93129720E030E007C084
:10336000CD011496BD010E94F41821E030E0C9019E
:10337000DF91CF91089580E86DE276E045E650E078
:103380000E9490150895FC0180818F5F808380E802
:1033900062E976E049E150E00E9490150895629F4D
:1033A000D001739FF001829FE00DF11D649FE00D3D
:1033B000F11D929FF00D839FF00D749FF00D659F9E
:1033C000F00D9927729FB00DE11DF91F639FB00D9D
:1033D000E11DF91FBD01CF0111240895A1E21A2EAC
:1033E000AA1BBB1BFD010DC0AA1FBB1FEE1FFF1FA9
:1033F000A217B307E407F50720F0A21BB30BE40BF9
:10340000F50B661F771F881F991F1A9469F760953F
:103410007095809590959B01AC01BD01CF010895F9
:10342000EE0FFF1F0590F491E02D0994F894FFCF63
:103430004A756D703244465500433A5C5573657267
:10344000735C64656C6C5C446F63756D656E7473FE
:103450005C41726475696E6F5C6C696272617269FD
:1034600065735C424C455C6163695F717565756548
:103470002E63707000203A0043002045004143490C
:103480005F4556545F444154415F4352454449545B
:10349000202020202000446174612043726564690B
:1034A0007420617661696C61626C653A20006461C8
:1034B0007461207472616E736D6D697420737563CD
:1034C000636573732120204C656E6774683A200031
:1034D000202020200064617461207472616E736D1D
:1034E0006D6974206661696C202100746865206EC6
:1034F0006577206E616D6520697320746F6F206C35
:103500006F6E67004552524F5220003A20000A0069
:103510000607426C656E644D6963726F00010401B9
:103520000401800001040001080001020001800084
:1035300000E1000000000000010100000000801216
:103540004D131F1246122D12A812AC1200000000DB
:0A355000A8184D134A190719FA18BC
:00000001FF
