:1000000000400020614201004142010041420100E4
:1000100000000000000000000000000000000000E0
:10002000000000000000000000000000414201004C
:1000300000000000000000004142010041420100B8
:1000400041420100414201004142010041420100A0
:100050004142010000000000414201004142010014
:100060004142010041420100414201004142010080
:100070004142010041420100414201004142010070
:1000800041420100D15301004142010041420100BF
:10009000715401004142010041420100414201000E
:1000A0004142010041420100000000000000000048
:1000B0000000000000000000000000000000000040
:1000C00010B5064C2378002B07D1054B002B02D02E
:1000D000044800E000BF0123237010BD0825002064
:1000E00000000000705A010008B5084B002B03D037
:1000F0000748084900E000BF07480368002B03D009
:10010000064B002B00D0984708BDC04600000000F9
:10011000705A01000C250020705A010000000000F8
:1001200008B50D20012100F0DDF808BD10B5FA2456
:100130000121A4000D2000F011F9201C00F070F83E
:1001400000210D2000F00AF9201C00F069F810BD14
:10015000704700008021A323C9050120DB00054A68
:10016000C85000239360886091680029FCD0014A40
:1001700093607047FC00004013B5002000900821F8
:100180000622114B01F07AF9002803D0A2210F4A70
:1001900000F006F90E4C0121201C0E4A01F026FA4F
:1001A000002803D0A721094A00F0FAF8F0212068BE
:1001B0008903002201F092FA002803D0AA21034A01
:1001C00000F0EEF813BDC046242500203C59010084
:1001D000742800205141010007B501A801F0C4FABC
:1001E000019A0B4900230868496880185941074B58
:1001F000054A01F0D1FA4B04C00B1843C90B03B0F8
:1002000000BDC046C046C046E80300000000000034
:10021000A0280020C046C04608B5FFF7DDFF08BD96
:1002200038B5041CFFF7F8FF051CFFF7F5FF401B6E
:10023000A04202D200F002F8F7E738BD7047000094
:1002400008B5044B5A68044BD205520DD358984751
:1002500008BDC04600ED00E004200020FEE70000DD
:100260001048114910B5884201D0002301E00F4B1E
:1002700007E00F4CCA18A242F9D2C45804331460E4
:10028000F7E70C4A191D043B934203D200221A607F
:100290000B1CF6E701F0A2FA00F00EF800F076F879
:1002A000FEE7C046705A0100002000200C25002007
:1002B00008250020A8280020064B1B681B061B0FE2
:1002C000012B06D1044A054B1A608022044B12020E
:1002D0001A607047E80F00F0DFFF07C00405004018
:1002E000186C004010B50C1C00F066F8021E1E2AA7
:1002F00027D80C2C25D8C132A023FF32201CDB05C7
:10030000920001F03FFA07140B07090D0F121416A3
:10031000181A1C00002113E0042111E00C210FE049
:1003200001210DE00221FF310AE0064908E00649FB
:1003300006E0064904E0064902E0064900E00649F5
:10034000995010BD010200000103000001040000EB
:1003500001050000010600000107000038B50D1C72
:1003600000F02AF8041E1E2C0DD800F03BF80122E4
:10037000A023A240DB05141C002D02D0A121C9003E
:1003800000E001495C5038BD0C05000008B5FFF7DE
:10039000E1FEFFF7F1FEFFF7C3FEFFF7C7FEFCE744
:1003A000BFF34F8F024A034BDA60BFF34F8FFEE774
:1003B0000400FA0500ED00E0FF23182801D8024BE5
:1003C0001B5C181C7047C04697590100024B800007
:1003D0001B680022C25070470020002043DF704796
:1003E00012DF7047F7B5854D061C281CFFF7F8FF94
:1003F000002804D0BE214900814AFFF7D1FF814C7B
:100400002378B34249D1804B804F1E782B78B500BA
:10041000002B18D17E4AA023DB00D058795B0190D5
:10042000012088408446019861468843D050D058C6
:10043000791901904888012181408C4601996046D4
:100440008143D15018E07B5B01209840FFF7C6FF45
:10045000002804D0C5214900694AFFF7A1FF7B1994
:100460005B8801209840FFF7B9FF002804D0C6211F
:100470004900634AFFF794FFA2225200FF23B118FC
:100480006448654A7B5389007D196B8023708850CE
:10049000624A93555C4A137098E06378B34249D13D
:1004A000594B5A4E5F782B78BD00002B18D1584A13
:1004B000A023DB00D058715B019001208840844666
:1004C000019861468843D050D058711901904888EE
:1004D000012181408C46019960468143D15018E04A
:1004E000735B01209840FFF779FF002804D0A22118
:1004F000FF31434AFFF754FF73195B88012098408E
:10050000FFF76CFF002804D0A421FF313C4AFFF71D
:1005100047FFA2225200FF23B9183E483E4A7353B8
:10052000890075196B80637088503C4AD355364AF0
:1005300053704BE0A378B34248D1334B334E9F788E
:100540002B78BD00002B18D1314AA023DB00D058F6
:10055000715B019001208840844601986146884380
:10056000D050D058711901904888012181408C46A3
:10057000019960468143D15018E0735B0120984097
:10058000FFF72CFF002804D0B821FF311C4AFFF7E9
:1005900007FF73195B8801209840FFF71FFF0028B1
:1005A00004D0BA21FF31164AFFF7FAFEA222520008
:1005B000FF23B9181748184A7353890075196B80BF
:1005C000A3708850154AD3550F4A93702378FF2B98
:1005D00013D16378FF2B10D1A378FF2B0DD1104BD3
:1005E00001225A60C22292000021995080220D4BB4
:1005F0009200DA670920FFF7E9FEF7BD78280020AE
:10060000B0590100DB200020D4200020C4200020AD
:1006100000F00140001F030000600040D7200020D0
:100620000090004004E100E080B582B000AF021C01
:10063000FB1D1A70064BFA1D1278111C1F220A406E
:100640000121081C9040021C1A60BD4602B080BD0A
:1006500000E100E080B582B000AF021CFB1D1A7003
:10066000074AFB1D1B78191C1F230B400121081C86
:100670009840031C191C8023D150BD4602B080BD98
:1006800000E100E080B582B000AF021CFB1D1A70D3
:10069000084AFB1D1B78191C1F230B400121081C55
:1006A0009840031C191C80235B00D150BD4602B04A
:1006B00080BDC04600E100E080B582B000AF021C02
:1006C000FB1D1A70084AFB1D1B78191C1F230B40C9
:1006D0000121081C9840031C191CC0235B00D15049
:1006E000BD4602B080BDC04600E100E0B0B582B0BA
:1006F00000AF021C3960FB1D1A70FB1D1B787F2B9D
:1007000032D93049FB1D1B781A1C0F231340083BBC
:1007100098082C4AFB1D1B781C1C0F232340083B08
:100720009B0806339B00D3185B68FA1D1278141CD3
:1007300003222240D200FF24251C95402A1CD243CC
:100740001A403B689C01FF231C40FB1D1B781D1CAD
:1007500003232B40DB00251C9D402B1C1A43831DCB
:100760009B00CB185A6029E0174BFA1D127852B241
:1007700092081549F81D007840B28008C03080000A
:100780004158F81D0078041C03202040C000FF24BD
:10079000251C8540281CC043084039688C01FF2176
:1007A0000C40F91D09780D1C03212940C900251CA6
:1007B0008D40291C0143C0329200D150BD4602B089
:1007C000B0BDC04600ED00E000E100E080B582B0C1
:1007D00000AF021CFB1D1A70FB1D1B787F2B16D966
:1007E000164AFB1D1B78191C0F230B40083B9B0866
:1007F00006339B00D3185A68FB1D1B78191C032372
:100800000B40DB00DA40FF2313409B0911E00C4B47
:10081000FA1D127852B29208C0329200D258FB1DD3
:100820001B78191C03230B40DB00DA40FF23134025
:100830009B09181CBD4602B080BDC04600ED00E01B
:1008400000E100E080B582B000AF0C4B5B68DB05D7
:10085000DB0D7B607B68002B0BD07B68103B3B6023
:100860003B68DBB25BB2181CFFF7B0FF031CDBB2C6
:1008700000E00423181CBD4602B080BD00ED00E07E
:1008800080B582B000AF78607A68032313405A4283
:100890005341DBB2181CBD4602B080BD80B582B0AA
:1008A00000AF7860C046C046C046C046C046C0469D
:1008B000C046C046C046C046C046C046C046C04608
:1008C0007B68013B7B60002BECD1BD4602B080BD54
:1008D00080B582B000AF7860054AA123DB0079685B
:1008E000D15011200321FFF701FFBD4602B080BDAA
:1008F0000010014080B500AF164AD1239B00802133
:100900004902D150134AC1239B0080214902D15092
:10091000104A1049D1239B00CB5802211943D123FF
:100920009B00D1500B4A0B49C1239B00CB5802219D
:100930001943C1239B00D1501120FFF7BDFE1120A8
:10094000FFF772FE034B01221A602F20FFF7A6FF6C
:10095000BD4680BD0010014080B500AF1120FFF7FB
:1009600079FE1A4AD2239B0080214902D150174AAE
:10097000C2239B0080214902D150144A1349D2233B
:100980009B00CB5802211943D2239B00D1500F4A20
:100990000E49C2239B00CB5802211943C2239B005E
:1009A000D1500A4AD2239B0001214942D150074A23
:1009B000C2239B0001214942D150044B01225A60BD
:1009C0002F20FFF76BFFBD4680BDC04600100140E1
:1009D00080B500AF024A034BD358181CBD4680BDFA
:1009E000001001400405000080B582B000AF7860BF
:1009F00039607A683B68D31A1B021B0A181CBD4673
:100A000002B080BD80B582B000AF7860034AA823F1
:100A1000DB007968D150BD4602B080BD00100140B6
:100A200080B586B000AF78604C4B19687A68131CAB
:100A3000DB009B189B00CB18BB60494B1B68013344
:100A400003D1474B7A681A6084E0BB685968434B0E
:100A50001868434B1A68131CDB009B189B00C318D3
:100A60005B6899421ED83D4B19683D4B1A68131CB0
:100A7000DB009B189B00CA18384B1868384B196864
:100A80000B1CDB005B189B00C3185968BB685B68D4
:100A9000CB1A5360324B1A68BB681A62304B7A68C3
:100AA0001A6057E0BB685B68FB602D4B1B687B617D
:100AB0002B4B1B683B6117E0284B19683A69131CE4
:100AC000DB009B189B00CB185B68FA68D31AFB60AD
:100AD0003B697B61214B19683A69131CDB009B1849
:100AE0009B00CB181B6A3B613B6901330BD01B4B4E
:100AF00019683A69131CDB009B189B00CB185A68D5
:100B0000FB689A42D8D33B69013313D0134B196861
:100B10003A69131CDB009B189B00CA180F4B18681E
:100B200039690B1CDB005B189B00C3185968FB6814
:100B3000CB1A5360BB68FA685A60BB683A691A629C
:100B4000064B19687A69131CDB009B189B00CB18B5
:100B50007A681A62BD4606B080BDC0467C28002077
:100B60008828002080B586B000AF7860364B1B68BF
:100B70007B617B693B6110E03A697B689A4200D1F6
:100B80000EE03B697B61314B19683A69131CDB004D
:100B90009B189B00CB181B6A3B613B690133EBD16F
:100BA0003B69013300D14CE07A693B699A420BD131
:100BB000264B1968244B1A68131CDB009B189B00FA
:100BC000CB181A6A204B1A60204B19683A69131C1B
:100BD000DB009B189B00CB185B68FB601B4B196804
:100BE0007A69131CDB009B189B00CA18174B186806
:100BF00039690B1CDB005B189B00C3181B6A13626E
:100C0000124B19687A69131CDB009B189B00CB18E8
:100C10001B6A3B613B69013313D00C4B19683A697D
:100C2000131CDB009B189B00CA18084B1868396915
:100C30000B1CDB005B189B00C3185968FB68CB18C2
:100C40005360BD4606B080BD882800207C28002067
:100C500080B500AF1120FFF715FDBD4680BDC04631
:100C600080B500AF1420FFF70DFDBD4680BDC04626
:100C700080B584B000AF7860134B1B68002B1AD08E
:100C8000114B1A687B6899697B68DB69081C191C21
:100C90009047031CFB60FB68BB60BB68002B09D05E
:100CA000B968AE235A00094B081C111C1A1CFFF727
:100CB00077FB06E005E07B689A697B68DB69181CB6
:100CC0009047BD4604B080BD9C280020145A010006
:100CD00080B584B000AF2B4B1B6801334FD000238D
:100CE0007B60FFF775FE021C274B1B68101C191C4C
:100CF000FFF77AFE031CBB60224B1B68FB601FE002
:100D0000224B1968FA68131CDB009B189B00CB1858
:100D10003B603B685A68BB689A4200D913E03B6865
:100D20005B68BA68D31ABB603B685B687A68D318A3
:100D30007B603B681B6AFB603B68181CFFF798FFF1
:100D4000FB680133DCD1124B1A78124B1B789A42A4
:100D50000CD1104B1B780133DAB20E4B1A700D4BCD
:100D60001B78022B02D10B4B00221A70094B1B7807
:100D70001A1C094B92007968D150FFF771FFBD46EC
:100D800004B080BD882800208C2800207C2800200A
:100D900098280020992800209028002080B582B053
:100DA00000AF7860184B1A78184B1B789A4223D002
:100DB000154B1B780133DAB2134B1A70124B1B78A8
:100DC000022B02D1104B00221A700F4B1B781A1CF9
:100DD0000F4B9200D2587B681A607B681A680D4BE3
:100DE0001B68D2180B4B1A600A4B1B681B021A0AAD
:100DF000084B1A60012303E07B6800221A6000237D
:100E0000181CBD4602B080BD9828002099280020FB
:100E1000902800208C28002080B586B000AF434B7E
:100E20001B683B613B1C1733414A12781A7068E01B
:100E3000404B1A683B1C17331B78DB00D318FB6050
:100E40003B1C1633FA6812781A7053E0FB68596835
:100E50003B1C16331A78131C5B009B18DB00CB1865
:100E6000BB603B1C16331A783B1C163301321A70D8
:100E7000FB689B783A1C163212789A4203D13B1CCD
:100E8000163300221A70BB681B78022B02D0032B8A
:100E90002AD02FE0284B1968BB685A68131CDB0066
:100EA0009B189B00CB187B607B681B7D002B08D0B8
:100EB000BB685B68181CFFF755FE7B6800221A753B
:100EC00018E017E01C4B1968184B1A68131CDB005C
:100ED0009B189B00CB183B603B6800221A753B684F
:100EE0001A6A124B1A6000E0C046104B1B680133AF
:100EF000E8D1C046FB685B783A1C163212789A42F9
:100F0000A4D13B1C17331B783A1C1732591E1170A1
:100F1000002B8DD1054B1A683B69D31A5A1E934199
:100F2000DBB2181CBD4606B080BDC0468828002034
:100F300080280020842800207C28002080B588B0EC
:100F400000AFF860B9607A600023FB6142E0254B96
:100F50001968254B1A68131CDB009B189B00CB18E3
:100F6000BB61BB695A68FB689A4206D9BB695A687B
:100F7000FB68D21ABB695A6030E0BB695B68FA68EB
:100F8000D31AFB60BB695B68FA69D318FB61BB6964
:100F900000225A60BB6900221A75134B1B687B61E3
:100FA000BB691A6A104B1A60BB691B69002B11D010
:100FB000BA68FB69D3181B021A0ABB699A60BB693D
:100FC0001A69BB69DA607B681A68BB691A627B6858
:100FD0007A691A60044B1B680133B8D1BD4608B06A
:100FE00080BDC0467C2800208828002080B58AB0BB
:100FF00000AF7860624B1B68BB613B1C2733614AC2
:1010000012781A70A7E0604B1A683B1C27331B78D4
:10101000DB00D3187B6193E07B6801330ED07B68E3
:101020003B625A4B19683A6A131CDB009B189B0001
:10103000CB18FB61FB691B6A7B603EE07B695968EA
:101040007B691B781A1C131C5B009B18DB00CB18F8
:101050003B617B691B780133DAB27B691A707B696B
:101060001A787B699B789A4202D17B6900221A70B8
:101070003B695B683B62454B19683A6A131CDB00AD
:101080009B189B00CB18FB613B691B78012B03D19C
:10109000FB691B7D002B00D052E03B699A68FB691D
:1010A0009A603B69DA68FB69DA603B691A69FB6937
:1010B0001A613B695A69FB69DA61FB699A68344BCA
:1010C0001B68D31A1B021A0A324B9A420ED8FB69CC
:1010D0009A682F4B1B68101C191CFFF785FC021C1B
:1010E000FB69DB68D218FB695A6018E0284B1A6864
:1010F000FB699B68101C191CFFF776FC031CFB6046
:10110000FB69DA68FB689A4206D9FB69DA68FB6812
:10111000D21AFB695A6002E0FB6900225A60FB693F
:1011200000229A60FB690022DA60FB6901221A75CD
:10113000FB69012252421A623B6A181CFFF770FCDD
:101140007B68013300D067E77B691A787B695B783D
:101150009A4200D060E73B1C27331B783A1C2732A9
:10116000591E1170002B00D04DE7054B1A68BB6962
:10117000D31A5A1E9341DBB2181CBD460AB080BD7B
:101180008828002080280020842800207C28002037
:101190008C280020FEFF7F0090B589B000AF7860FA
:1011A000284B1B68013348D0274B1968254B1A6818
:1011B000131CDB009B189B00CB185B68FB61FFF7DF
:1011C00007FC031CBB61214B1B687B61BA697B690F
:1011D000101C191CFFF708FC031C03333B617B68E0
:1011E000013301D1FFF786FBFA693B69934200D2D4
:1011F000131C7A69D3187B617B691B021B0A7B6114
:101200007B69181CFFF7FEFBFFF7E2FB031CFB608A
:10121000FA68BB69101C191CFFF7E6FB031CDC1CF9
:101220007A69BB69101C191CFFF7DEFB031C9C428A
:1012300002D9FFF70DFD02E001E0FFF78DFBBD468F
:1012400009B090BD882800207C2800208C28002030
:1012500090B587B000AF01235B427B601D4B1B68DC
:101260003B611D4B1B68FB603C1C0B343B1C181C7A
:10127000FFF794FD031C23703C1C1734FFF7CCFDD3
:10128000031C23703B1C0B331B78002B0BD03968DD
:101290003A693B1D081C111C1A1CFFF74FFE3B1C32
:1012A000173301221A707B68181CFFF79FFE031C7E
:1012B000002B03D03B1C173301221A703B1C173341
:1012C0001B78002B03D0FB68181CFFF765FFBD4699
:1012D00007B090BD8C2800208828002080B582B0FF
:1012E00000AF786039603B68DAB27B685A70BD46FF
:1012F00002B080BD80B584B000AF786039607B6893
:101300005B780133FB607B689B781A1CFB689A4210
:1013100001D10023FB607B681B781A1CFB689A4292
:1013200001D100230EE03B68FA681A607B685968B7
:101330007B685B781A1C131C5B009B18DB00CB18C6
:10134000BB60BB68181CBD4604B080BD80B586B0CC
:1013500000AFF860B9607A603B601B4B1A68FB68AD
:10136000DB00D2183B1C1033101C191CFFF7C2FF06
:10137000031C7B617B69002B01D1042320E07B6986
:1013800001221A707B69BA685A60FFF721FB021CC0
:101390007B699A607B697A68DA607B693A681A616E
:1013A0007B693A6A5A61084B1A68FB68DB00D218FD
:1013B0003B69101C191CFFF791FFFFF751FC00233C
:1013C000181CBD4606B080BD842800200000000027
:1013D000F8B500AF2449822252008A58002A1AD058
:1013E000224A156856681F4A1D49491972411F480B
:1013F000016042601D4A1168526800200B1C834343
:10140000FF20141C0440194A13605460164A8223BA
:101410005B000021D150144AA0235B00D358002B5D
:101420001AD0114AA0235B000021D1500E4AA223FA
:101430005B000021D1500C4AA4235B000021D15055
:10144000094AA6235B000021D150074A80235B0094
:101450000021D150FFF73CFCBD46F8BDC046C04658
:10146000000000010000000000100140A028002042
:1014700080B500AFFFF7ECFEBD4680BD80B586B0FD
:1014800000AFF8607B603B1C0B3319703B1C0A33C8
:101490001A707B68181CFFF7F3F9031C01225340F4
:1014A000DBB2002B01D0072389E07B68002B01D140
:1014B000072384E0FFF750FA434B3A6A1A60434B24
:1014C0003A1C0B3212781A70414B7A681A6000236A
:1014D0007B6116E03E4B19687A69131CDB009B1890
:1014E0009B00CB1800221A70394B19687A69131CBB
:1014F000DB009B189B00CB1800221A757B69013317
:101500007B613B1C0B331A787B699A42E2DC3B1C03
:101510000B331A78131CDB009B189B007A68D318D6
:101520007B602C4B03221A702B4B7A681A607B6805
:1015300018337B6000237B6120E0274B1A687B69AE
:10154000DB00D3183B613B6900221A703B69002223
:101550005A703B693A1C0A3212789A703B697A6871
:101560005A603B1C0A331A78131C5B009B18DB0083
:101570007A68D3187B607B6901337B617B69022BBE
:10158000DBDD164B012252421A60154B00221A7005
:10159000144B00221A701420FFF78EF81420032138
:1015A000FFF7A4F81420FFF73FF8FB68181CFFF7BB
:1015B0008FF9FFF70DFA021C0B4B1A600023181C61
:1015C000BD4606B080BDC0469C280020792800207A
:1015D0007C280020802800208428002088280020E3
:1015E00098280020992800208C28002080B586B0FB
:1015F00000AFF8607A603B1C0B330A1C1A70284B52
:101600001B68002B01D1082346E07B68002B01D129
:10161000072341E0FB68002B01D107233CE00023B6
:101620007B6132E01E4B19687A69131CDB009B1842
:101630009B00CB181B78002B24D1194B19687A69B1
:10164000131CDB009B189B00CB1801221A70144B53
:1016500019687A69131CDB009B189B00CB183A1C95
:101660000B3212785A700E4B19687A69131CDB0022
:101670009B189B00CB187A689A617A69FB681A609C
:10168000002309E07B6901337B61064B1B781A1C40
:101690007B699A42C6DC0423181CBD4606B080BD97
:1016A0007C2800207928002080B582B000AFFFF7A9
:1016B000C9F8031C012B02D0032B03D005E0002343
:1016C0007B6005E001237B6002E002237B60C04673
:1016D0007B68181CBD4602B080BDC04690B589B07D
:1016E00002AFF860B9607A601D4B1B68002B01D116
:1016F000082330E01B4B1B781A1CFB689A4202D966
:10170000BB68042B01D8072325E0154B1968FA683C
:10171000131CDB009B189B00CB181B78012B01D0FE
:10172000082318E00E4B1968FA68131CDB009B189D
:101730009B00CB185B78012B01D1BB6800E0002334
:101740007B61FFF7B1FFF968BA687B697C68009438
:10175000FFF7FCFD031C181CBD4607B090BDC0463A
:101760007C2800207928002080B582B000AF786006
:10177000FFF72EF9021C7B681A600023181CBD4677
:1017800002B080BD02B4714649084900095C4900B5
:101790008E4402BC7047C0469C460304F0B51B0C47
:1017A00017043F0C150C1E1C041C000C7E436B43DD
:1017B00047434543FB18300C1818874202D9802351
:1017C0005B02ED18030CED1863465C434A43360494
:1017D000360CA118000480194919F0BD70B50D4EE2
:1017E0000D4D0024AD1BAD1005D0A300F3580134FE
:1017F0009847A542F9D100F029F9084E084D002478
:10180000AD1BAD1005D0A300F35801349847A54295
:10181000F9D170BD585A0100585A0100585A0100B8
:10182000605A010008B5034B002B02D0024800F0BB
:1018300005F808BD000000004D58010008B5011C66
:1018400000220020002300F019F808BD38B5094B2C
:10185000094DED1AAD1009D0013DAC00E41800E0CF
:10186000013D23689847043C002DF9D100F0F8F8B9
:1018700038BDC0466C5A0100705A0100F0B54F46A1
:101880004646C0B498462B4BA4251B686D005C5996
:1018900083B0061C0F1C91460193002C44D0656850
:1018A0001F2D1ADD244B002B02D1012040421CE0E9
:1018B000C820400000E000BF041EF6D000254560AF
:1018C000A42301985B00C05801992060CC50C42328
:1018D0005B00E550C6235B00E550002E0AD16B1C6F
:1018E0000235AD00636000202F5103B00CBC904660
:1018F0009946F0BDAB00E318882248469850C420B2
:101900004000221810680121A94008431060842279
:10191000520040469850022EE1D1C6225200A31830
:10192000186801431960DAE71C1C4D34FF345C5120
:10193000B5E7C046485A010000000000443A5C6127
:10194000726475696E6F2D312E352E372D77696E65
:10195000646F77735C61726475696E6F2D312E35BB
:101960002E375C68617264776172655C6172647560
:10197000696E6F5C52424C5F6E524635313832327E
:101980005C636F7265735C61726475696E6F5C64D1
:10199000656C61792E63000B090A08151710111385
:1019A000120E0C0D0F1D1C1916140102030405065E
:1019B000443A5C61726475696E6F2D312E352E3735
:1019C0002D77696E646F77735C61726475696E6F91
:1019D0002D312E352E375C68617264776172655CDB
:1019E00061726475696E6F5C52424C5F6E5246352F
:1019F000313832325C636F7265735C617264756931
:101A00006E6F5C776972696E675F616E616C6F673C
:101A10002E6300002E2E2F2E2E2F2E2E2F2E2E2F09
:101A20002E2E2F2F536F757263652F6170705F6359
:101A30006F6D6D6F6E2F6170705F74696D65722E62
:101A40006300000043000000E0200020F8B5C0461D
:101A5000F8BC08BC9E46704725580100E9400100CB
:101A6000F8B5C046F8BC08BC9E467047C1400100AE
:101A700044200020000000005D4201005D420100A2
:101A80005D420100000000000000000000000000B6
:101A90000000000000000000000000000000000046
:101AA0005D42010000000000000000005D420100F6
:101AB0005D42010000000000000000000000000086
:101AC0000000000000000000000000000000000016
:101AD0000000000000000000000000000000000006
:101AE00000000000000000000000000000000000F6
:101AF00000000000000000000000000000000000E6
:101B000000000000000000000000000000000000D5
:101B100000000000000000000000000000000000C5
:101B200000000000000000000000000000000000B5
:101B300000000000FF00FF00FF00FF00FF00FF00AB
:101B4000FF00FF00FFFFFFFFFFFFFFFFFFFF0000A1
:101B500000000000CC230020342400209C2400201E
:101B60000000000000000000000000000000000075
:101B70000000000000000000000000000000000065
:101B800000000000445A01000000000000000000B6
:101B90000000000000000000000000000000000045
:101BA0000000000000000000000000000000000035
:101BB0000000000000000000000000000000000025
:101BC0000000000000000000000000000000000015
:101BD0000000000000000000000000000000000005
:101BE00000000000000000000000000000000000F5
:101BF00000000000000000000100000000000000E4
:101C00000E33CDAB34126DE6ECDE05000B000000A8
:101C100000000000000000000000000000000000C4
:101C200000000000000000000000000000000000B4
:101C300000000000000000000000000000000000A4
:101C40000000000000000000000000000000000094
:00000001FF
