:10700000C0C10000D9C10000D7C10000D5C1000037
:10701000D3C10000D1C10000CFC10000CDC100002C
:10702000CBC10000C9C10000C7C10000C5C100003C
:10703000C3C10000C1C10000BFC10000BDC100004C
:10704000BBC1000015C20000B7C10000B5C10000FF
:10705000B3C10000B1C10000AFC10000ADC100006C
:10706000ABC10000A9C10000A7C10000A5C100007C
:10707000A3C10000A1C100009FC100009DC100008C
:107080009BC1000099C1000097C1000095C100009C
:1070900093C1000091C100008FC100008DC10000AC
:1070A0008BC1000089C1000087C1000000070600F5
:1070B0000003024207000000000000000000000082
:1070C00000000000000000000000000000001F069B
:1070D0001000000000000000030004010100000691
:1070E0000000D00000000000000000000015001F9C
:1070F00006101C300200000000000000000000002C
:107100000000000000001000000014039001FF00C8
:107110001F061038FFFF02580A050000000000009B
:10712000000000000010000000000000000000004F
:1071300000050610540000000000000000000000E0
:10714000000000000000000000000000000000003F
:1071500000001F06200004040202000128000100B4
:1071600018040405050002280301020300002A0494
:107170000414001F06201C0300032A000144465586
:1071800064696373656D692E636F6D0000000000B4
:10719000000404001F06203805050004280301022E
:1071A0000500012A0604030200052A0101800004EB
:1071B00004050500001F06205406280301020700ED
:1071C000042A0604090800072A04010A0012000024
:1071D000000A000404001F062070020200082800B4
:1071E000010118040405050009280301220A00050D
:1071F0002A2604050400001F06208C0A2A05010027
:1072000000000046140302000B29020100000404E0
:107210001010000C280001001F0620A823D1BCEA92
:107220005F782315DEEF12123015000004041313EB
:10723000000D280301040E00001F0620C423D1BC4A
:10724000EA5F782315DEEF121232150000441014A5
:1072500000000E153202000000001F0620E00000B2
:10726000000000000000000000000000000000041A
:10727000041313000F2803011810001F0620FC0040
:1072800023D1BCEA5F782315DEEF1212311500001E
:107290005410140000101531020000001F062118C0
:1072A00000000000000000000000000000000000DE
:1072B0000000461403020011290201000005062106
:1072C000340000000000000000000000000000008A
:1072D00000000000000000000000000000001F0689
:1072E00040002A0501000404000A000B15320200C8
:1072F0000804000E0000153102040204001000050D
:1073000006401C001100000000000000000000000A
:10731000000000000000000000000000000000006D
:107320001306500023D1BCEA5F782315DEEF12125A
:10733000000000000000000000000000000000004D
:10734000000C0660000000000000000000000000CB
:10735000000000000000000000000000000000002D
:1073600000000606F0000377240000000000000083
:10737000000000000000000000000000000000000D
:10738000000011241FBECFEFDAE0DEBFCDBF11E059
:10739000A0E0B1E0E8ECFFE702C005900D92AA3151
:1073A000B107D9F712E0AAE1B1E001C01D92A832FD
:1073B000B107E1F71CD106C623CEFB01DC0102C0F8
:1073C00005900D9241505040D8F70895FB01DC0123
:1073D00002C001900D9241505040D8F70895F894A2
:1073E00010926F001092810010928500109284001C
:1073F00081E085BF15BE47980C9400000895209148
:107400000502309106022F5F3F4F30930602209312
:107410000502932F37FF03C08EEF831B982F990F20
:10742000921710F447980895479A089520E880E04D
:1074300090E00FB6F89420936100809361000FBE36
:1074400081E085BF92E095BF3F9A209A559AE1E688
:10745000F0E0208310825D9A289A109289008AEFCA
:107460008093880090936F0083E08093810008955B
:107470001F920F920FB60F9211242F938F939F9309
:10748000EF93FF931092850010928400E0E0F0E00B
:10749000859194918F5F9F4F49F080911E0190914B
:1074A0001F01019690931F0180931E01FF91EF91A0
:1074B0009F918F912F910F900FBE0F901F90189555
:1074C0000F931F93DF93CF93CDB7DEB7A2970FB67D
:1074D000F894DEBF0FBECDBF8C0181E291E0BE010A
:1074E0006F5F7F4F25D2882309F476C08B81853862
:1074F00079F1863848F4833809F45AC0843800F5A5
:10750000813809F05EC00EC08A3849F18B3820F40A
:10751000863809F056C04CC08C38B9F18D3809F066
:1075200050C028C08E81809334018C81823021F438
:1075300081E08093200145C0833009F042C038C00B
:107540008C818E3009F03DC08D818823D1F530C00B
:1075500010921F0110921E018091340108C01092F8
:107560001F0110921E018C8190913601890F80932A
:10757000360127C010921F0110921E018D818239A1
:1075800001F1809136018F5FF2CF10921F011092AE
:107590001E019C81F8018081981719F0828198174B
:1075A00081F481E291E0BE016E5F7F4F3BD309C061
:1075B0006091050170910601809103019091040191
:1075C0005DD280912001882339F081E291E0AFD033
:1075D000882311F410922001A2960FB6F894DEBF12
:1075E0000FBECDBFCF91DF911F910F9108954091B4
:1075F000000850910108109201081092000884B709
:1076000014BE28E10FB6F894209360001092600039
:107610000FBE90E0FC01E270F07081FD0DC085911D
:1076200094918F5F9F4F41F08091080190910901E3
:107630004817590709F0D3DEF9DE789484E0809387
:107640002F018CEA90E7909331018093300186E11D
:107650008093320181E291E049D280E091E0A6D4AA
:107660000DC080911E0190911F0181589E4310F022
:107670001092070180E091E023DFC1DE80910701D5
:10768000882379F7ACDE80E090E00895AF92BF9256
:10769000CF92DF92EF92FF920F931F93DF93CF93DE
:1076A000CDB7DEB7A1970FB6F894DEBF0FBECDBF42
:1076B0007C018B01DD2481E2C82E5E010894A11CAF
:1076C000B11C1DC0D7011F96ED91FC9150979C9D58
:1076D000C0011124E80FF91F31964491319750E011
:1076E0004E5F5F4FC501BF0168DEC50103D188232E
:1076F00061F0F80180818F5F8083DD24D394D8010D
:107700009C91F70181899817E8F28D2DA1960FB60B
:10771000F894DEBF0FBECDBFCF91DF911F910F91C7
:10772000FF90EF90DF90CF90BF90AF900895BF9201
:10773000CF92DF92EF92FF920F931F93DF93CF933D
:10774000CDB7DEB7A3970FB6F894DEBF0FBECDBF9F
:107750007C0119828E010F5F1F4FB80197DF92E005
:10776000C92ED12CCC0EDD1EB02E012FC601DED0CD
:107770008823E1F38E81813021F0823051F084E062
:1077800009C0C7016B2D702F81DFC701B601D0D0B2
:10779000EDCF80E0A3960FB6F894DEBF0FBECDBF4D
:1077A000CF91DF911F910F91FF90EF90DF90CF90DD
:1077B000BF90089510924E0110924F0124982C9A78
:1077C00084B1866084B9259A2D9A2398209A8CB525
:1077D00081678CBD089583B182958F70809581708B
:1077E0000895F9DF90914E01882329F4992309F433
:1077F00048C02D980895992321F4109250011092B9
:1078000051012D98509151015EBD0DB407FEFDCF81
:107810008EB580930702809152018EBD0DB407FE94
:10782000FDCF4EB540930802552349F0252F30E097
:10783000842F90E08217930714F4452F4150842F32
:10784000403208F08FE1A9E0B2E0E3E5F1E0282F53
:1078500030E02A0F3B1F08C080818EBD0DB407FEAB
:10786000FDCF8EB58D933196A217B307A9F72D9A48
:1078700010924E0180910802882319F081E08093D4
:107880004F0108950F931F93182F092FAADF80919E
:107890004F01882371F0812F902F9C01D901E7E0DF
:1078A000F2E081E201900D928150E1F710924F01D8
:1078B00081E01F910F9108950F931F93182F092FA7
:1078C00080914F01882309F48CDF80914F01882338
:1078D00071F0812F902F9C01D901E7E0F2E081E265
:1078E00001900D928150E1F710924F0181E01F91BC
:1078F0000F910895FC0121812032B0F480914E0156
:10790000882391F41092500161E571E030E02F5F1F
:107910003F4FAF014F5F5F4FCB01BA01A90156DD69
:1079200081E080934E01089580E00895ABCF0895E3
:107930000F931F93CF93DF938C01EB01CB01BCDF3F
:10794000282F8823A9F18A81883829F0893819F1EC
:10795000863871F512C0DE01F8017C9690E013962E
:107960008C91139780831B968C911B9780879F5FC8
:1079700011963196983099F71BC0F8017C9680E0FB
:10798000108210868F5F31968830D1F7F80114A6E7
:107990008389858B0DC08B819C81F801978B868BA9
:1079A0008D819E81918F808F8F819885938F828F1B
:1079B000822FDF91CF911F910F910895EF92FF9247
:1079C0001F93DF93CF93CDB7DEB7E6970FB6F8944A
:1079D000DEBF0FBECDBF142F898382E0E82EF12CCD
:1079E000EC0EFD1EC70150E0F1DC1E5F1F8B125034
:1079F00085E1888F8981898F9E01265E3F4FC9016D
:107A0000B701412F50E0E2DCCE01469673DFE696E7
:107A10000FB6F894DEBF0FBECDBFCF91DF911F919F
:107A2000FF90EF9008950F931F93DF93CF93CDB7FF
:107A3000DEB7A1970FB6F894DEBF0FBECDBF8C01A5
:107A400082E08A8381E18B836C83CE01019652DFD1
:107A5000882349F0F8017C9690E0108210869F5FA1
:107A600031969830D1F7A1960FB6F894DEBF0FBECD
:107A7000CDBFCF91DF911F910F910895DF93CF93E9
:107A8000CDB7DEB7A1970FB6F894DEBF0FBECDBF5E
:107A900025E02A832FE02B839D838C837F836E8355
:107AA000CE01019627DFA1960FB6F894DEBF0FBE78
:107AB000CDBFCF91DF910895DF93CF93CDB7DEB7E0
:107AC000A1970FB6F894DEBF0FBECDBF81E08A83C9
:107AD0008EE08B83CE0101960DDFA1960FB6F89450
:107AE000DEBF0FBECDBFCF91DF910895EF92FF9221
:107AF0000F931F93DF93CF93CDB7DEB7C354D0401E
:107B00000FB6F894DEBF0FBECDBF8C01FC017C9692
:107B100080E0108210868F5F31968830D1F74ADE80
:107B2000C801CADF92E2E92EF12CEC0EFD1EC8015D
:107B3000B701FEDE8823D9F38CA18438C1F71982FE
:107B400084E08A8381E88B8382E08C831D828E832C
:107B5000A7E0B2E0FE01319681E201900D928150E2
:107B6000E1F781E080934F01CD5BDF4F0FB6F894D2
:107B7000DEBF0FBECDBFCF91DF911F910F91FF9060
:107B8000EF900895CF93DF93EC01DB0110926F002B
:107B900083E0FE0180935700E89507B600FCFDCF17
:107BA00040E050E061E08C9111963C91119720E00B
:107BB000F901E80FF11DCF011296FA01EC0FFD1F3C
:107BC0000C0160935700E89511244E5F5F4F4038D9
:107BD000510549F785E0FE0180935700E89507B607
:107BE00000FCFDCF81E180935700E89582E080930F
:107BF0006F00DF91CF9108959C01462F8091030281
:107C0000B901DCDE282F882339F0E0917101F09171
:107C1000720185898150858B8BB190E289278BB960
:107C2000822F0895DF92EF92FF920F931F93DF93BD
:107C3000CF93CDB7DEB7A8970FB6F894DEBF0FBECF
:107C4000CDBFAC018B0185B191E0892785B95093F7
:107C5000720140937101FB01928180910202981799
:107C6000F1F080910402981709F092C18381853068
:107C700009F45FC1863050F4833009F423C18430A5
:107C800008F02AC1823009F083C115C1883009F497
:107C900070C1843121F0863009F07AC161C18091D0
:107CA0000C01833009F464C0843009F468C0813069
:107CB00009F06EC120910302322F377081E090E00D
:107CC00001C0880F3A95EAF7269526952695FA0180
:107CD000E20FF11D248D282B248F809524A182236F
:107CE00084A3F801268130E040E050E0522F442781
:107CF00033272227858190E0A0E0B0E0DC019927BE
:107D00008827282B392B4A2B5B2B838190E0A0E01E
:107D1000B0E0282B392B4A2B5B2B848190E0A0E02C
:107D2000B0E0BA2FA92F982F8827282B392B4A2B60
:107D30005B2B209373013093740140937501509332
:107D40007601215030404040504020503047404064
:107D5000504020F084E080930F0103C082E08093C4
:107D60000C018DE091E063E047DF8823D1F310C17F
:107D700080E191E063E040DF8823D1F309C1F8019D
:107D8000D080FEEFDF0E2091770130917801211530
:107D9000310591F18091790190917A010197909349
:107DA0007A0180937901892B39F530937A012093F8
:107DB000790120917B0130917C0140917D015091AE
:107DC0007E0181E189831A822B83BB27A52F942F03
:107DD000832F8C83CA01AA27BB278D83252F3327A6
:107DE000442755272E837E010894E11CF11CC7010E
:107DF00066E002DF8823D9F3FF2425C090910102B9
:107E0000E92FF0E0EF57FE4FD801AF0DB11D1396EB
:107E10008C9180839F5F90930102903899F4109227
:107E2000010280917F019091800161E871E0AADEFA
:107E300080917F019091800180589F4F90938001A5
:107E400080937F01F394FD14C8F280917B0190919F
:107E50007C01A0917D01B0917E018D0D911DA11D30
:107E6000B11D80937B0190937C01A0937D01B09321
:107E70007E01209173013091740140917501509100
:107E80007601281739074A075B0709F081C08091FE
:107E90007F019091800101969093800180937F01F2
:107EA000019761E871E06EDE83E191E063E0A4DEBA
:107EB0008823D1F36DC080910C01823009F068C035
:107EC00083E007C080910C018250823008F060C0CE
:107ED00084E080930C015CC080910C01843009F037
:107EE00057C0DE011196E6E1F1E083E001900D92CA
:107EF0008150E1F720917B0130917C0140917D011F
:107F000050917E018091730190917401A09175014F
:107F1000B0917601281739074A075B0741F48E01B3
:107F20000F5F1F4FC80163E067DE8823D9F385E048
:107F3000D0CF80910C01853059F5CA0161E073DD25
:107F40008E01095F1F4F06C08091710190917201EF
:107F5000B801EEDC89858638B9F71092070118C0A0
:107F60008091710190917201A7DD8823C9F381E0AE
:107F7000B0CFFB01358120E0848190E0822B932BF0
:107F8000909378018093770190937A01809379019F
:107F9000A8960FB6F894DEBF0FBECDBFCF91DF918C
:107FA0001F910F91FF90EF90DF90089521E02093B3
:107FB0000C01A2E0B2E0FC0183E001900D9281503F
:087FC000E1F70895F894FFCFEA
:107FC800020304B40050000177770008FF10010194
:0A7FD8001002011003011004010063
:040000030000700089
:00000001FF
